{
  "_format": "hh-sol-artifact-1",
  "contractName": "AidBoxTracker",
  "sourceName": "contracts/AidBoxTracker.sol",
  "abi": [
    {
      "inputs": [],
      "stateMutability": "nonpayable",
      "type": "constructor"
    },
    {
      "anonymous": false,
      "inputs": [
        {
          "indexed": false,
          "internalType": "uint256",
          "name": "id",
          "type": "uint256"
        },
        {
          "indexed": false,
          "internalType": "string",
          "name": "newStatus",
          "type": "string"
        }
      ],
      "name": "AidBoxStatusUpdated",
      "type": "event"
    },
    {
      "inputs": [
        {
          "internalType": "string",
          "name": "description",
          "type": "string"
        },
        {
          "internalType": "string",
          "name": "status",
          "type": "string"
        }
      ],
      "name": "addAidBox",
      "outputs": [],
      "stateMutability": "nonpayable",
      "type": "function"
    },
    {
      "inputs": [
        {
          "internalType": "uint256",
          "name": "",
          "type": "uint256"
        }
      ],
      "name": "aidBoxes",
      "outputs": [
        {
          "internalType": "uint256",
          "name": "id",
          "type": "uint256"
        },
        {
          "internalType": "string",
          "name": "description",
          "type": "string"
        },
        {
          "internalType": "string",
          "name": "status",
          "type": "string"
        }
      ],
      "stateMutability": "view",
      "type": "function"
    },
    {
      "inputs": [
        {
          "internalType": "uint256",
          "name": "id",
          "type": "uint256"
        }
      ],
      "name": "getAidBox",
      "outputs": [
        {
          "components": [
            {
              "internalType": "uint256",
              "name": "id",
              "type": "uint256"
            },
            {
              "internalType": "string",
              "name": "description",
              "type": "string"
            },
            {
              "internalType": "string",
              "name": "status",
              "type": "string"
            }
          ],
          "internalType": "struct AidBoxTracker.AidBox",
          "name": "",
          "type": "tuple"
        }
      ],
      "stateMutability": "view",
      "type": "function"
    },
    {
      "inputs": [],
      "name": "nextId",
      "outputs": [
        {
          "internalType": "uint256",
          "name": "",
          "type": "uint256"
        }
      ],
      "stateMutability": "view",
      "type": "function"
    },
    {
      "inputs": [],
      "name": "owner",
      "outputs": [
        {
          "internalType": "address",
          "name": "",
          "type": "address"
        }
      ],
      "stateMutability": "view",
      "type": "function"
    },
    {
      "inputs": [
        {
          "internalType": "uint256",
          "name": "id",
          "type": "uint256"
        },
        {
          "internalType": "string",
          "name": "status",
          "type": "string"
        }
      ],
      "name": "updateAidBoxStatus",
      "outputs": [],
      "stateMutability": "nonpayable",
      "type": "function"
    },
    {
      "inputs": [
        {
          "internalType": "uint256",
          "name": "",
          "type": "uint256"
        }
      ],
      "name": "validStatuses",
      "outputs": [
        {
          "internalType": "string",
          "name": "",
          "type": "string"
        }
      ],
      "stateMutability": "view",
      "type": "function"
    }
  ],
  "bytecode": "0x608060405260405180608001604052806040518060400160405280600781526020017f50656e64696e670000000000000000000000000000000000000000000000000081525081526020016040518060400160405280600981526020017f44656c697665726564000000000000000000000000000000000000000000000081525081526020016040518060400160405280600a81526020017f496e205472616e7369740000000000000000000000000000000000000000000081525081526020016040518060400160405280600981526020017f43616e63656c6c6564000000000000000000000000000000000000000000000081525081525060019060046200010b92919062000160565b503480156200011957600080fd5b50336000806101000a81548173ffffffffffffffffffffffffffffffffffffffff021916908373ffffffffffffffffffffffffffffffffffffffff160217905550620005ae565b828054828255906000526020600020908101928215620001ad579160200282015b82811115620001ac5782518290816200019b9190620004c7565b509160200191906001019062000181565b5b509050620001bc9190620001c0565b5090565b5b80821115620001e45760008181620001da9190620001e8565b50600101620001c1565b5090565b508054620001f690620002b6565b6000825580601f106200020a57506200022b565b601f0160209004906000526020600020908101906200022a91906200022e565b5b50565b5b80821115620002495760008160009055506001016200022f565b5090565b600081519050919050565b7f4e487b7100000000000000000000000000000000000000000000000000000000600052604160045260246000fd5b7f4e487b7100000000000000000000000000000000000000000000000000000000600052602260045260246000fd5b60006002820490506001821680620002cf57607f821691505b602082108103620002e557620002e462000287565b5b50919050565b60008190508160005260206000209050919050565b60006020601f8301049050919050565b600082821b905092915050565b6000600883026200034f7fffffffffffffffffffffffffffffffffffffffffffffffffffffffffffffffff8262000310565b6200035b868362000310565b95508019841693508086168417925050509392505050565b6000819050919050565b6000819050919050565b6000620003a8620003a26200039c8462000373565b6200037d565b62000373565b9050919050565b6000819050919050565b620003c48362000387565b620003dc620003d382620003af565b8484546200031d565b825550505050565b600090565b620003f3620003e4565b62000400818484620003b9565b505050565b5b8181101562000428576200041c600082620003e9565b60018101905062000406565b5050565b601f82111562000477576200044181620002eb565b6200044c8462000300565b810160208510156200045c578190505b620004746200046b8562000300565b83018262000405565b50505b505050565b600082821c905092915050565b60006200049c600019846008026200047c565b1980831691505092915050565b6000620004b7838362000489565b9150826002028217905092915050565b620004d2826200024d565b67ffffffffffffffff811115620004ee57620004ed62000258565b5b620004fa8254620002b6565b620005078282856200042c565b600060209050601f8311600181146200053f57600084156200052a578287015190505b620005368582620004a9565b865550620005a6565b601f1984166200054f86620002eb565b60005b82811015620005795784890151825560018201915060208501945060208101905062000552565b8683101562000599578489015162000595601f89168262000489565b8355505b6001600288020188555050505b505050505050565b61138a80620005be6000396000f3fe608060405234801561001057600080fd5b506004361061007d5760003560e01c80638da5cb5b1161005b5780638da5cb5b146100ec578063afb635401461010a578063d5b3b3f51461013a578063db7aa531146101565761007d565b8063290b5ec71461008257806361b8ce8c1461009e5780638899800c146100bc575b600080fd5b61009c60048036038101906100979190610a07565b610188565b005b6100a66102e5565b6040516100b39190610a98565b60405180910390f35b6100d660048036038101906100d19190610adf565b6102eb565b6040516100e39190610b8b565b60405180910390f35b6100f4610397565b6040516101019190610bee565b60405180910390f35b610124600480360381019061011f9190610adf565b6103bb565b6040516101319190610cb9565b60405180910390f35b610154600480360381019061014f9190610cdb565b61055a565b005b610170600480360381019061016b9190610adf565b6106d5565b60405161017f93929190610d37565b60405180910390f35b60008054906101000a900473ffffffffffffffffffffffffffffffffffffffff1673ffffffffffffffffffffffffffffffffffffffff163373ffffffffffffffffffffffffffffffffffffffff1614610216576040517f08c379a000000000000000000000000000000000000000000000000000000000815260040161020d90610dee565b60405180910390fd5b61021f8161080f565b61025e576040517f08c379a000000000000000000000000000000000000000000000000000000000815260040161025590610e5a565b60405180910390fd5b60405180606001604052806003548152602001838152602001828152506002600060035481526020019081526020016000206000820151816000015560208201518160010190816102af9190611086565b5060408201518160020190816102c59190611086565b50905050600360008154809291906102dc90611187565b91905055505050565b60035481565b600181815481106102fb57600080fd5b90600052602060002001600091509050805461031690610ea9565b80601f016020809104026020016040519081016040528092919081815260200182805461034290610ea9565b801561038f5780601f106103645761010080835404028352916020019161038f565b820191906000526020600020905b81548152906001019060200180831161037257829003601f168201915b505050505081565b60008054906101000a900473ffffffffffffffffffffffffffffffffffffffff1681565b6103c361088c565b6003548210610407576040517f08c379a00000000000000000000000000000000000000000000000000000000081526004016103fe9061121b565b60405180910390fd5b600260008381526020019081526020016000206040518060600160405290816000820154815260200160018201805461043f90610ea9565b80601f016020809104026020016040519081016040528092919081815260200182805461046b90610ea9565b80156104b85780601f1061048d576101008083540402835291602001916104b8565b820191906000526020600020905b81548152906001019060200180831161049b57829003601f168201915b505050505081526020016002820180546104d190610ea9565b80601f01602080910402602001604051908101604052809291908181526020018280546104fd90610ea9565b801561054a5780601f1061051f5761010080835404028352916020019161054a565b820191906000526020600020905b81548152906001019060200180831161052d57829003601f168201915b5050505050815250509050919050565b60008054906101000a900473ffffffffffffffffffffffffffffffffffffffff1673ffffffffffffffffffffffffffffffffffffffff163373ffffffffffffffffffffffffffffffffffffffff16146105e8576040517f08c379a00000000000000000000000000000000000000000000000000000000081526004016105df90610dee565b60405180910390fd5b600354821061062c576040517f08c379a00000000000000000000000000000000000000000000000000000000081526004016106239061121b565b60405180910390fd5b6106358161080f565b610674576040517f08c379a000000000000000000000000000000000000000000000000000000000815260040161066b90610e5a565b60405180910390fd5b806002600084815260200190815260200160002060020190816106979190611086565b507fdab47a09412b5193aff2c36c4d82ffe170628d06e8479c97ae4ed6cfba6aa6fd82826040516106c992919061123b565b60405180910390a15050565b60026020528060005260406000206000915090508060000154908060010180546106fe90610ea9565b80601f016020809104026020016040519081016040528092919081815260200182805461072a90610ea9565b80156107775780601f1061074c57610100808354040283529160200191610777565b820191906000526020600020905b81548152906001019060200180831161075a57829003601f168201915b50505050509080600201805461078c90610ea9565b80601f01602080910402602001604051908101604052809291908181526020018280546107b890610ea9565b80156108055780601f106107da57610100808354040283529160200191610805565b820191906000526020600020905b8154815290600101906020018083116107e857829003601f168201915b5050505050905083565b600080600090505b60018054905081101561088157600181815481106108385761083761126b565b5b9060005260206000200160405161084f919061133d565b604051809103902083805190602001200361086e576001915050610887565b808061087990611187565b915050610817565b50600090505b919050565b60405180606001604052806000815260200160608152602001606081525090565b6000604051905090565b600080fd5b600080fd5b600080fd5b600080fd5b6000601f19601f8301169050919050565b7f4e487b7100000000000000000000000000000000000000000000000000000000600052604160045260246000fd5b610914826108cb565b810181811067ffffffffffffffff82111715610933576109326108dc565b5b80604052505050565b60006109466108ad565b9050610952828261090b565b919050565b600067ffffffffffffffff821115610972576109716108dc565b5b61097b826108cb565b9050602081019050919050565b82818337600083830152505050565b60006109aa6109a584610957565b61093c565b9050828152602081018484840111156109c6576109c56108c6565b5b6109d1848285610988565b509392505050565b600082601f8301126109ee576109ed6108c1565b5b81356109fe848260208601610997565b91505092915050565b60008060408385031215610a1e57610a1d6108b7565b5b600083013567ffffffffffffffff811115610a3c57610a3b6108bc565b5b610a48858286016109d9565b925050602083013567ffffffffffffffff811115610a6957610a686108bc565b5b610a75858286016109d9565b9150509250929050565b6000819050919050565b610a9281610a7f565b82525050565b6000602082019050610aad6000830184610a89565b92915050565b610abc81610a7f565b8114610ac757600080fd5b50565b600081359050610ad981610ab3565b92915050565b600060208284031215610af557610af46108b7565b5b6000610b0384828501610aca565b91505092915050565b600081519050919050565b600082825260208201905092915050565b60005b83811015610b46578082015181840152602081019050610b2b565b60008484015250505050565b6000610b5d82610b0c565b610b678185610b17565b9350610b77818560208601610b28565b610b80816108cb565b840191505092915050565b60006020820190508181036000830152610ba58184610b52565b905092915050565b600073ffffffffffffffffffffffffffffffffffffffff82169050919050565b6000610bd882610bad565b9050919050565b610be881610bcd565b82525050565b6000602082019050610c036000830184610bdf565b92915050565b610c1281610a7f565b82525050565b600082825260208201905092915050565b6000610c3482610b0c565b610c3e8185610c18565b9350610c4e818560208601610b28565b610c57816108cb565b840191505092915050565b6000606083016000830151610c7a6000860182610c09565b5060208301518482036020860152610c928282610c29565b91505060408301518482036040860152610cac8282610c29565b9150508091505092915050565b60006020820190508181036000830152610cd38184610c62565b905092915050565b60008060408385031215610cf257610cf16108b7565b5b6000610d0085828601610aca565b925050602083013567ffffffffffffffff811115610d2157610d206108bc565b5b610d2d858286016109d9565b9150509250929050565b6000606082019050610d4c6000830186610a89565b8181036020830152610d5e8185610b52565b90508181036040830152610d728184610b52565b9050949350505050565b7f4f6e6c7920746865206f776e65722063616e20706572666f726d20746869732060008201527f616374696f6e0000000000000000000000000000000000000000000000000000602082015250565b6000610dd8602683610b17565b9150610de382610d7c565b604082019050919050565b60006020820190508181036000830152610e0781610dcb565b9050919050565b7f496e76616c696420737461747573000000000000000000000000000000000000600082015250565b6000610e44600e83610b17565b9150610e4f82610e0e565b602082019050919050565b60006020820190508181036000830152610e7381610e37565b9050919050565b7f4e487b7100000000000000000000000000000000000000000000000000000000600052602260045260246000fd5b60006002820490506001821680610ec157607f821691505b602082108103610ed457610ed3610e7a565b5b50919050565b60008190508160005260206000209050919050565b60006020601f8301049050919050565b600082821b905092915050565b600060088302610f3c7fffffffffffffffffffffffffffffffffffffffffffffffffffffffffffffffff82610eff565b610f468683610eff565b95508019841693508086168417925050509392505050565b6000819050919050565b6000610f83610f7e610f7984610a7f565b610f5e565b610a7f565b9050919050565b6000819050919050565b610f9d83610f68565b610fb1610fa982610f8a565b848454610f0c565b825550505050565b600090565b610fc6610fb9565b610fd1818484610f94565b505050565b5b81811015610ff557610fea600082610fbe565b600181019050610fd7565b5050565b601f82111561103a5761100b81610eda565b61101484610eef565b81016020851015611023578190505b61103761102f85610eef565b830182610fd6565b50505b505050565b600082821c905092915050565b600061105d6000198460080261103f565b1980831691505092915050565b6000611076838361104c565b9150826002028217905092915050565b61108f82610b0c565b67ffffffffffffffff8111156110a8576110a76108dc565b5b6110b28254610ea9565b6110bd828285610ff9565b600060209050601f8311600181146110f057600084156110de578287015190505b6110e8858261106a565b865550611150565b601f1984166110fe86610eda565b60005b8281101561112657848901518255600182019150602085019450602081019050611101565b86831015611143578489015161113f601f89168261104c565b8355505b6001600288020188555050505b505050505050565b7f4e487b7100000000000000000000000000000000000000000000000000000000600052601160045260246000fd5b600061119282610a7f565b91507fffffffffffffffffffffffffffffffffffffffffffffffffffffffffffffffff82036111c4576111c3611158565b5b600182019050919050565b7f416964426f7820646f6573206e6f742065786973740000000000000000000000600082015250565b6000611205601583610b17565b9150611210826111cf565b602082019050919050565b60006020820190508181036000830152611234816111f8565b9050919050565b60006040820190506112506000830185610a89565b81810360208301526112628184610b52565b90509392505050565b7f4e487b7100000000000000000000000000000000000000000000000000000000600052603260045260246000fd5b600081905092915050565b60008190508160005260206000209050919050565b600081546112c781610ea9565b6112d1818661129a565b945060018216600081146112ec576001811461130157611334565b60ff1983168652811515820286019350611334565b61130a856112a5565b60005b8381101561132c5781548189015260018201915060208101905061130d565b838801955050505b50505092915050565b600061134982846112ba565b91508190509291505056fea264697066735822122031864f74b16be0a3449a9e26265d37829e54a552dcc46ebcdd293b6dd3e5884d64736f6c63430008120033",
  "linkReferences": {},
  "deployedLinkReferences": {}
}