{
  "_format": "hh-sol-artifact-1",
  "contractName": "AidBoxTracker",
  "sourceName": "contracts/AidBoxTracker.sol",
  "abi": [
    {
      "inputs": [],
      "stateMutability": "nonpayable",
      "type": "constructor"
    },
    {
      "anonymous": false,
      "inputs": [
        {
          "indexed": false,
          "internalType": "uint256",
          "name": "id",
          "type": "uint256"
        },
        {
          "indexed": false,
          "internalType": "string",
          "name": "newStatus",
          "type": "string"
        }
      ],
      "name": "AidBoxStatusUpdated",
      "type": "event"
    },
    {
      "anonymous": false,
      "inputs": [
        {
          "indexed": false,
          "internalType": "address",
          "name": "fromOrg",
          "type": "address"
        },
        {
          "indexed": false,
          "internalType": "address",
          "name": "toOrg",
          "type": "address"
        },
        {
          "indexed": false,
          "internalType": "string",
          "name": "details",
          "type": "string"
        }
      ],
      "name": "CollaborationRequested",
      "type": "event"
    },
    {
      "anonymous": false,
      "inputs": [
        {
          "indexed": true,
          "internalType": "address",
          "name": "sender",
          "type": "address"
        },
        {
          "indexed": true,
          "internalType": "address",
          "name": "receiver",
          "type": "address"
        },
        {
          "indexed": false,
          "internalType": "uint256",
          "name": "boxId",
          "type": "uint256"
        },
        {
          "indexed": false,
          "internalType": "uint256",
          "name": "timestamp",
          "type": "uint256"
        }
      ],
      "name": "FundsShared",
      "type": "event"
    },
    {
      "anonymous": false,
      "inputs": [
        {
          "indexed": true,
          "internalType": "uint256",
          "name": "boxId",
          "type": "uint256"
        },
        {
          "indexed": false,
          "internalType": "string",
          "name": "latlong",
          "type": "string"
        },
        {
          "indexed": false,
          "internalType": "uint256",
          "name": "timestamp",
          "type": "uint256"
        }
      ],
      "name": "LocationUpdated",
      "type": "event"
    },
    {
      "inputs": [
        {
          "internalType": "string",
          "name": "description",
          "type": "string"
        },
        {
          "internalType": "string",
          "name": "status",
          "type": "string"
        }
      ],
      "name": "addAidBox",
      "outputs": [],
      "stateMutability": "nonpayable",
      "type": "function"
    },
    {
      "inputs": [
        {
          "internalType": "uint256",
          "name": "",
          "type": "uint256"
        }
      ],
      "name": "aidBoxes",
      "outputs": [
        {
          "internalType": "uint256",
          "name": "id",
          "type": "uint256"
        },
        {
          "internalType": "string",
          "name": "description",
          "type": "string"
        },
        {
          "internalType": "string",
          "name": "status",
          "type": "string"
        }
      ],
      "stateMutability": "view",
      "type": "function"
    },
    {
      "inputs": [
        {
          "internalType": "uint256",
          "name": "",
          "type": "uint256"
        }
      ],
      "name": "boxCoordinates",
      "outputs": [
        {
          "internalType": "string",
          "name": "",
          "type": "string"
        }
      ],
      "stateMutability": "view",
      "type": "function"
    },
    {
      "inputs": [
        {
          "internalType": "uint256",
          "name": "id",
          "type": "uint256"
        }
      ],
      "name": "getAidBox",
      "outputs": [
        {
          "components": [
            {
              "internalType": "uint256",
              "name": "id",
              "type": "uint256"
            },
            {
              "internalType": "string",
              "name": "description",
              "type": "string"
            },
            {
              "internalType": "string",
              "name": "status",
              "type": "string"
            }
          ],
          "internalType": "struct AidBoxTracker.AidBox",
          "name": "",
          "type": "tuple"
        }
      ],
      "stateMutability": "view",
      "type": "function"
    },
    {
      "inputs": [],
      "name": "nextId",
      "outputs": [
        {
          "internalType": "uint256",
          "name": "",
          "type": "uint256"
        }
      ],
      "stateMutability": "view",
      "type": "function"
    },
    {
      "inputs": [],
      "name": "owner",
      "outputs": [
        {
          "internalType": "address",
          "name": "",
          "type": "address"
        }
      ],
      "stateMutability": "view",
      "type": "function"
    },
    {
      "inputs": [
        {
          "internalType": "address",
          "name": "toOrg",
          "type": "address"
        },
        {
          "internalType": "string",
          "name": "details",
          "type": "string"
        }
      ],
      "name": "requestCollaboration",
      "outputs": [],
      "stateMutability": "nonpayable",
      "type": "function"
    },
    {
      "inputs": [
        {
          "internalType": "address",
          "name": "toOrg",
          "type": "address"
        },
        {
          "internalType": "uint256",
          "name": "boxId",
          "type": "uint256"
        }
      ],
      "name": "shareFunds",
      "outputs": [],
      "stateMutability": "payable",
      "type": "function"
    },
    {
      "inputs": [
        {
          "internalType": "uint256",
          "name": "id",
          "type": "uint256"
        },
        {
          "internalType": "string",
          "name": "status",
          "type": "string"
        }
      ],
      "name": "updateAidBoxStatus",
      "outputs": [],
      "stateMutability": "nonpayable",
      "type": "function"
    },
    {
      "inputs": [
        {
          "internalType": "uint256",
          "name": "boxId",
          "type": "uint256"
        },
        {
          "internalType": "string",
          "name": "latlong",
          "type": "string"
        }
      ],
      "name": "updateLocation",
      "outputs": [],
      "stateMutability": "nonpayable",
      "type": "function"
    },
    {
      "inputs": [
        {
          "internalType": "uint256",
          "name": "",
          "type": "uint256"
        }
      ],
      "name": "validStatuses",
      "outputs": [
        {
          "internalType": "string",
          "name": "",
          "type": "string"
        }
      ],
      "stateMutability": "view",
      "type": "function"
    }
  ],
  "bytecode": "0x60806040526040518060a001604052806040518060400160405280600781526020017f50656e64696e670000000000000000000000000000000000000000000000000081525081526020016040518060400160405280600981526020017f44656c697665726564000000000000000000000000000000000000000000000081525081526020016040518060400160405280600a81526020017f496e205472616e7369740000000000000000000000000000000000000000000081525081526020016040518060400160405280600981526020017f43616e63656c6c6564000000000000000000000000000000000000000000000081525081526020016040518060400160405280600e81526020017f52656365697665642046756e64730000000000000000000000000000000000008152508152506001906005620001469291906200019b565b503480156200015457600080fd5b50336000806101000a81548173ffffffffffffffffffffffffffffffffffffffff021916908373ffffffffffffffffffffffffffffffffffffffff160217905550620005e9565b828054828255906000526020600020908101928215620001e8579160200282015b82811115620001e7578251829081620001d6919062000502565b5091602001919060010190620001bc565b5b509050620001f79190620001fb565b5090565b5b808211156200021f576000818162000215919062000223565b50600101620001fc565b5090565b5080546200023190620002f1565b6000825580601f1062000245575062000266565b601f01602090049060005260206000209081019062000265919062000269565b5b50565b5b80821115620002845760008160009055506001016200026a565b5090565b600081519050919050565b7f4e487b7100000000000000000000000000000000000000000000000000000000600052604160045260246000fd5b7f4e487b7100000000000000000000000000000000000000000000000000000000600052602260045260246000fd5b600060028204905060018216806200030a57607f821691505b60208210810362000320576200031f620002c2565b5b50919050565b60008190508160005260206000209050919050565b60006020601f8301049050919050565b600082821b905092915050565b6000600883026200038a7fffffffffffffffffffffffffffffffffffffffffffffffffffffffffffffffff826200034b565b6200039686836200034b565b95508019841693508086168417925050509392505050565b6000819050919050565b6000819050919050565b6000620003e3620003dd620003d784620003ae565b620003b8565b620003ae565b9050919050565b6000819050919050565b620003ff83620003c2565b620004176200040e82620003ea565b84845462000358565b825550505050565b600090565b6200042e6200041f565b6200043b818484620003f4565b505050565b5b8181101562000463576200045760008262000424565b60018101905062000441565b5050565b601f821115620004b2576200047c8162000326565b62000487846200033b565b8101602085101562000497578190505b620004af620004a6856200033b565b83018262000440565b50505b505050565b600082821c905092915050565b6000620004d760001984600802620004b7565b1980831691505092915050565b6000620004f28383620004c4565b9150826002028217905092915050565b6200050d8262000288565b67ffffffffffffffff81111562000529576200052862000293565b5b620005358254620002f1565b6200054282828562000467565b600060209050601f8311600181146200057a576000841562000565578287015190505b620005718582620004e4565b865550620005e1565b601f1984166200058a8662000326565b60005b82811015620005b4578489015182556001820191506020850194506020810190506200058d565b86831015620005d45784890151620005d0601f891682620004c4565b8355505b6001600288020188555050505b505050505050565b611c9380620005f96000396000f3fe60806040526004361061009c5760003560e01c8063afb6354011610064578063afb6354014610186578063d354d591146101c3578063d5b3b3f514610200578063d7ec5cfc14610229578063db7aa53114610245578063e7c54600146102845761009c565b8063290b5ec7146100a15780634ec0c9e9146100ca57806361b8ce8c146100f35780638899800c1461011e5780638da5cb5b1461015b575b600080fd5b3480156100ad57600080fd5b506100c860048036038101906100c39190610f4c565b6102ad565b005b3480156100d657600080fd5b506100f160048036038101906100ec9190610ffa565b61040a565b005b3480156100ff57600080fd5b506101086104ad565b6040516101159190611065565b60405180910390f35b34801561012a57600080fd5b5061014560048036038101906101409190611080565b6104b3565b604051610152919061112c565b60405180910390f35b34801561016757600080fd5b5061017061055f565b60405161017d919061118f565b60405180910390f35b34801561019257600080fd5b506101ad60048036038101906101a89190611080565b610583565b6040516101ba919061125a565b60405180910390f35b3480156101cf57600080fd5b506101ea60048036038101906101e59190611080565b610722565b6040516101f7919061112c565b60405180910390f35b34801561020c57600080fd5b5061022760048036038101906102229190610ffa565b6107c2565b005b610243600480360381019061023e91906112a8565b61093d565b005b34801561025157600080fd5b5061026c60048036038101906102679190611080565b610bdb565b60405161027b939291906112e8565b60405180910390f35b34801561029057600080fd5b506102ab60048036038101906102a6919061132d565b610d15565b005b60008054906101000a900473ffffffffffffffffffffffffffffffffffffffff1673ffffffffffffffffffffffffffffffffffffffff163373ffffffffffffffffffffffffffffffffffffffff161461033b576040517f08c379a0000000000000000000000000000000000000000000000000000000008152600401610332906113fb565b60405180910390fd5b61034481610d54565b610383576040517f08c379a000000000000000000000000000000000000000000000000000000000815260040161037a90611467565b60405180910390fd5b60405180606001604052806004548152602001838152602001828152506002600060045481526020019081526020016000206000820151816000015560208201518160010190816103d49190611693565b5060408201518160020190816103ea9190611693565b509050506004600081548092919061040190611794565b91905055505050565b600454821061044e576040517f08c379a000000000000000000000000000000000000000000000000000000000815260040161044590611828565b60405180910390fd5b8060036000848152602001908152602001600020908161046e9190611693565b50817f08c1aa8a3ded74821ab8fe6981a7dd0f9ebb0c3fcef9196f34b9f4e9d0e4edcd82426040516104a1929190611848565b60405180910390a25050565b60045481565b600181815481106104c357600080fd5b9060005260206000200160009150905080546104de906114b6565b80601f016020809104026020016040519081016040528092919081815260200182805461050a906114b6565b80156105575780601f1061052c57610100808354040283529160200191610557565b820191906000526020600020905b81548152906001019060200180831161053a57829003601f168201915b505050505081565b60008054906101000a900473ffffffffffffffffffffffffffffffffffffffff1681565b61058b610dd1565b60045482106105cf576040517f08c379a00000000000000000000000000000000000000000000000000000000081526004016105c6906118c4565b60405180910390fd5b6002600083815260200190815260200160002060405180606001604052908160008201548152602001600182018054610607906114b6565b80601f0160208091040260200160405190810160405280929190818152602001828054610633906114b6565b80156106805780601f1061065557610100808354040283529160200191610680565b820191906000526020600020905b81548152906001019060200180831161066357829003601f168201915b50505050508152602001600282018054610699906114b6565b80601f01602080910402602001604051908101604052809291908181526020018280546106c5906114b6565b80156107125780601f106106e757610100808354040283529160200191610712565b820191906000526020600020905b8154815290600101906020018083116106f557829003601f168201915b5050505050815250509050919050565b60036020528060005260406000206000915090508054610741906114b6565b80601f016020809104026020016040519081016040528092919081815260200182805461076d906114b6565b80156107ba5780601f1061078f576101008083540402835291602001916107ba565b820191906000526020600020905b81548152906001019060200180831161079d57829003601f168201915b505050505081565b60008054906101000a900473ffffffffffffffffffffffffffffffffffffffff1673ffffffffffffffffffffffffffffffffffffffff163373ffffffffffffffffffffffffffffffffffffffff1614610850576040517f08c379a0000000000000000000000000000000000000000000000000000000008152600401610847906113fb565b60405180910390fd5b6004548210610894576040517f08c379a000000000000000000000000000000000000000000000000000000000815260040161088b906118c4565b60405180910390fd5b61089d81610d54565b6108dc576040517f08c379a00000000000000000000000000000000000000000000000000000000081526004016108d390611467565b60405180910390fd5b806002600084815260200190815260200160002060020190816108ff9190611693565b507fdab47a09412b5193aff2c36c4d82ffe170628d06e8479c97ae4ed6cfba6aa6fd82826040516109319291906118e4565b60405180910390a15050565b600073ffffffffffffffffffffffffffffffffffffffff168273ffffffffffffffffffffffffffffffffffffffff16036109ac576040517f08c379a00000000000000000000000000000000000000000000000000000000081526004016109a390611960565b60405180910390fd5b600034116109ef576040517f08c379a00000000000000000000000000000000000000000000000000000000081526004016109e6906119cc565b60405180910390fd5b6004548110610a33576040517f08c379a0000000000000000000000000000000000000000000000000000000008152600401610a2a90611828565b60405180910390fd5b60008273ffffffffffffffffffffffffffffffffffffffff1634604051610a5990611a1d565b60006040518083038185875af1925050503d8060008114610a96576040519150601f19603f3d011682016040523d82523d6000602084013e610a9b565b606091505b5050905080610adf576040517f08c379a0000000000000000000000000000000000000000000000000000000008152600401610ad690611a7e565b60405180910390fd5b8273ffffffffffffffffffffffffffffffffffffffff163373ffffffffffffffffffffffffffffffffffffffff167f3fff7a422b9ac86500c353cfdce1786906183ff5ecb2872876af0079806026168442604051610b3e929190611a9e565b60405180910390a36040518060400160405280600e81526020017f52656365697665642046756e6473000000000000000000000000000000000000815250600260008481526020019081526020016000206002019081610b9e9190611693565b507fdab47a09412b5193aff2c36c4d82ffe170628d06e8479c97ae4ed6cfba6aa6fd82604051610bce9190611b13565b60405180910390a1505050565b6002602052806000526040600020600091509050806000015490806001018054610c04906114b6565b80601f0160208091040260200160405190810160405280929190818152602001828054610c30906114b6565b8015610c7d5780601f10610c5257610100808354040283529160200191610c7d565b820191906000526020600020905b815481529060010190602001808311610c6057829003601f168201915b505050505090806002018054610c92906114b6565b80601f0160208091040260200160405190810160405280929190818152602001828054610cbe906114b6565b8015610d0b5780601f10610ce057610100808354040283529160200191610d0b565b820191906000526020600020905b815481529060010190602001808311610cee57829003601f168201915b5050505050905083565b7f4f6346e940b71393ab3e4b047c39b2e81c33032ae767224788a5e8ab3c2d28bd338383604051610d4893929190611b41565b60405180910390a15050565b600080600090505b600180549050811015610dc65760018181548110610d7d57610d7c611b7f565b5b90600052602060002001604051610d949190611c46565b6040518091039020838051906020012003610db3576001915050610dcc565b8080610dbe90611794565b915050610d5c565b50600090505b919050565b60405180606001604052806000815260200160608152602001606081525090565b6000604051905090565b600080fd5b600080fd5b600080fd5b600080fd5b6000601f19601f8301169050919050565b7f4e487b7100000000000000000000000000000000000000000000000000000000600052604160045260246000fd5b610e5982610e10565b810181811067ffffffffffffffff82111715610e7857610e77610e21565b5b80604052505050565b6000610e8b610df2565b9050610e978282610e50565b919050565b600067ffffffffffffffff821115610eb757610eb6610e21565b5b610ec082610e10565b9050602081019050919050565b82818337600083830152505050565b6000610eef610eea84610e9c565b610e81565b905082815260208101848484011115610f0b57610f0a610e0b565b5b610f16848285610ecd565b509392505050565b600082601f830112610f3357610f32610e06565b5b8135610f43848260208601610edc565b91505092915050565b60008060408385031215610f6357610f62610dfc565b5b600083013567ffffffffffffffff811115610f8157610f80610e01565b5b610f8d85828601610f1e565b925050602083013567ffffffffffffffff811115610fae57610fad610e01565b5b610fba85828601610f1e565b9150509250929050565b6000819050919050565b610fd781610fc4565b8114610fe257600080fd5b50565b600081359050610ff481610fce565b92915050565b6000806040838503121561101157611010610dfc565b5b600061101f85828601610fe5565b925050602083013567ffffffffffffffff8111156110405761103f610e01565b5b61104c85828601610f1e565b9150509250929050565b61105f81610fc4565b82525050565b600060208201905061107a6000830184611056565b92915050565b60006020828403121561109657611095610dfc565b5b60006110a484828501610fe5565b91505092915050565b600081519050919050565b600082825260208201905092915050565b60005b838110156110e75780820151818401526020810190506110cc565b60008484015250505050565b60006110fe826110ad565b61110881856110b8565b93506111188185602086016110c9565b61112181610e10565b840191505092915050565b6000602082019050818103600083015261114681846110f3565b905092915050565b600073ffffffffffffffffffffffffffffffffffffffff82169050919050565b60006111798261114e565b9050919050565b6111898161116e565b82525050565b60006020820190506111a46000830184611180565b92915050565b6111b381610fc4565b82525050565b600082825260208201905092915050565b60006111d5826110ad565b6111df81856111b9565b93506111ef8185602086016110c9565b6111f881610e10565b840191505092915050565b600060608301600083015161121b60008601826111aa565b506020830151848203602086015261123382826111ca565b9150506040830151848203604086015261124d82826111ca565b9150508091505092915050565b600060208201905081810360008301526112748184611203565b905092915050565b6112858161116e565b811461129057600080fd5b50565b6000813590506112a28161127c565b92915050565b600080604083850312156112bf576112be610dfc565b5b60006112cd85828601611293565b92505060206112de85828601610fe5565b9150509250929050565b60006060820190506112fd6000830186611056565b818103602083015261130f81856110f3565b9050818103604083015261132381846110f3565b9050949350505050565b6000806040838503121561134457611343610dfc565b5b600061135285828601611293565b925050602083013567ffffffffffffffff81111561137357611372610e01565b5b61137f85828601610f1e565b9150509250929050565b7f4f6e6c7920746865206f776e65722063616e20706572666f726d20746869732060008201527f616374696f6e0000000000000000000000000000000000000000000000000000602082015250565b60006113e56026836110b8565b91506113f082611389565b604082019050919050565b60006020820190508181036000830152611414816113d8565b9050919050565b7f496e76616c696420737461747573000000000000000000000000000000000000600082015250565b6000611451600e836110b8565b915061145c8261141b565b602082019050919050565b6000602082019050818103600083015261148081611444565b9050919050565b7f4e487b7100000000000000000000000000000000000000000000000000000000600052602260045260246000fd5b600060028204905060018216806114ce57607f821691505b6020821081036114e1576114e0611487565b5b50919050565b60008190508160005260206000209050919050565b60006020601f8301049050919050565b600082821b905092915050565b6000600883026115497fffffffffffffffffffffffffffffffffffffffffffffffffffffffffffffffff8261150c565b611553868361150c565b95508019841693508086168417925050509392505050565b6000819050919050565b600061159061158b61158684610fc4565b61156b565b610fc4565b9050919050565b6000819050919050565b6115aa83611575565b6115be6115b682611597565b848454611519565b825550505050565b600090565b6115d36115c6565b6115de8184846115a1565b505050565b5b81811015611602576115f76000826115cb565b6001810190506115e4565b5050565b601f82111561164757611618816114e7565b611621846114fc565b81016020851015611630578190505b61164461163c856114fc565b8301826115e3565b50505b505050565b600082821c905092915050565b600061166a6000198460080261164c565b1980831691505092915050565b60006116838383611659565b9150826002028217905092915050565b61169c826110ad565b67ffffffffffffffff8111156116b5576116b4610e21565b5b6116bf82546114b6565b6116ca828285611606565b600060209050601f8311600181146116fd57600084156116eb578287015190505b6116f58582611677565b86555061175d565b601f19841661170b866114e7565b60005b828110156117335784890151825560018201915060208501945060208101905061170e565b86831015611750578489015161174c601f891682611659565b8355505b6001600288020188555050505b505050505050565b7f4e487b7100000000000000000000000000000000000000000000000000000000600052601160045260246000fd5b600061179f82610fc4565b91507fffffffffffffffffffffffffffffffffffffffffffffffffffffffffffffffff82036117d1576117d0611765565b5b600182019050919050565b7f496e76616c696420426f78204944000000000000000000000000000000000000600082015250565b6000611812600e836110b8565b915061181d826117dc565b602082019050919050565b6000602082019050818103600083015261184181611805565b9050919050565b6000604082019050818103600083015261186281856110f3565b90506118716020830184611056565b9392505050565b7f416964426f7820646f6573206e6f742065786973740000000000000000000000600082015250565b60006118ae6015836110b8565b91506118b982611878565b602082019050919050565b600060208201905081810360008301526118dd816118a1565b9050919050565b60006040820190506118f96000830185611056565b818103602083015261190b81846110f3565b90509392505050565b7f496e76616c696420726563656976657200000000000000000000000000000000600082015250565b600061194a6010836110b8565b915061195582611914565b602082019050919050565b600060208201905081810360008301526119798161193d565b9050919050565b7f4e6f204554482073656e74000000000000000000000000000000000000000000600082015250565b60006119b6600b836110b8565b91506119c182611980565b602082019050919050565b600060208201905081810360008301526119e5816119a9565b9050919050565b600081905092915050565b50565b6000611a076000836119ec565b9150611a12826119f7565b600082019050919050565b6000611a28826119fa565b9150819050919050565b7f5472616e73666572206661696c65640000000000000000000000000000000000600082015250565b6000611a68600f836110b8565b9150611a7382611a32565b602082019050919050565b60006020820190508181036000830152611a9781611a5b565b9050919050565b6000604082019050611ab36000830185611056565b611ac06020830184611056565b9392505050565b7f52656365697665642046756e6473000000000000000000000000000000000000600082015250565b6000611afd600e836110b8565b9150611b0882611ac7565b602082019050919050565b6000604082019050611b286000830184611056565b8181036020830152611b3981611af0565b905092915050565b6000606082019050611b566000830186611180565b611b636020830185611180565b8181036040830152611b7581846110f3565b9050949350505050565b7f4e487b7100000000000000000000000000000000000000000000000000000000600052603260045260246000fd5b60008190508160005260206000209050919050565b60008154611bd0816114b6565b611bda81866119ec565b94506001821660008114611bf55760018114611c0a57611c3d565b60ff1983168652811515820286019350611c3d565b611c1385611bae565b60005b83811015611c3557815481890152600182019150602081019050611c16565b838801955050505b50505092915050565b6000611c528284611bc3565b91508190509291505056fea26469706673582212201e702cc8d3da0cb8aa590925f5637d80b7c87ef4917bc47de5e9713204c20a9964736f6c63430008120033",
  "linkReferences": {},
  "deployedLinkReferences": {}
}