{
  "_format": "hh-sol-artifact-1",
  "contractName": "AidBoxTracker",
  "sourceName": "contracts/AidBoxTracker.sol",
  "abi": [
    {
      "inputs": [],
      "stateMutability": "nonpayable",
      "type": "constructor"
    },
    {
      "anonymous": false,
      "inputs": [
        {
          "indexed": false,
          "internalType": "uint256",
          "name": "id",
          "type": "uint256"
        },
        {
          "indexed": false,
          "internalType": "string",
          "name": "newStatus",
          "type": "string"
        }
      ],
      "name": "AidBoxStatusUpdated",
      "type": "event"
    },
    {
      "anonymous": false,
      "inputs": [
        {
          "indexed": false,
          "internalType": "address",
          "name": "fromOrg",
          "type": "address"
        },
        {
          "indexed": false,
          "internalType": "address",
          "name": "toOrg",
          "type": "address"
        },
        {
          "indexed": false,
          "internalType": "string",
          "name": "details",
          "type": "string"
        }
      ],
      "name": "CollaborationRequested",
      "type": "event"
    },
    {
      "anonymous": false,
      "inputs": [
        {
          "indexed": true,
          "internalType": "address",
          "name": "sender",
          "type": "address"
        },
        {
          "indexed": true,
          "internalType": "address",
          "name": "receiver",
          "type": "address"
        },
        {
          "indexed": false,
          "internalType": "uint256",
          "name": "boxId",
          "type": "uint256"
        },
        {
          "indexed": false,
          "internalType": "uint256",
          "name": "timestamp",
          "type": "uint256"
        }
      ],
      "name": "FundsShared",
      "type": "event"
    },
    {
      "inputs": [
        {
          "internalType": "string",
          "name": "description",
          "type": "string"
        },
        {
          "internalType": "string",
          "name": "status",
          "type": "string"
        }
      ],
      "name": "addAidBox",
      "outputs": [],
      "stateMutability": "nonpayable",
      "type": "function"
    },
    {
      "inputs": [
        {
          "internalType": "uint256",
          "name": "",
          "type": "uint256"
        }
      ],
      "name": "aidBoxes",
      "outputs": [
        {
          "internalType": "uint256",
          "name": "id",
          "type": "uint256"
        },
        {
          "internalType": "string",
          "name": "description",
          "type": "string"
        },
        {
          "internalType": "string",
          "name": "status",
          "type": "string"
        }
      ],
      "stateMutability": "view",
      "type": "function"
    },
    {
      "inputs": [
        {
          "internalType": "uint256",
          "name": "id",
          "type": "uint256"
        }
      ],
      "name": "getAidBox",
      "outputs": [
        {
          "components": [
            {
              "internalType": "uint256",
              "name": "id",
              "type": "uint256"
            },
            {
              "internalType": "string",
              "name": "description",
              "type": "string"
            },
            {
              "internalType": "string",
              "name": "status",
              "type": "string"
            }
          ],
          "internalType": "struct AidBoxTracker.AidBox",
          "name": "",
          "type": "tuple"
        }
      ],
      "stateMutability": "view",
      "type": "function"
    },
    {
      "inputs": [],
      "name": "nextId",
      "outputs": [
        {
          "internalType": "uint256",
          "name": "",
          "type": "uint256"
        }
      ],
      "stateMutability": "view",
      "type": "function"
    },
    {
      "inputs": [],
      "name": "owner",
      "outputs": [
        {
          "internalType": "address",
          "name": "",
          "type": "address"
        }
      ],
      "stateMutability": "view",
      "type": "function"
    },
    {
      "inputs": [
        {
          "internalType": "address",
          "name": "toOrg",
          "type": "address"
        },
        {
          "internalType": "string",
          "name": "details",
          "type": "string"
        }
      ],
      "name": "requestCollaboration",
      "outputs": [],
      "stateMutability": "nonpayable",
      "type": "function"
    },
    {
      "inputs": [
        {
          "internalType": "address",
          "name": "toOrg",
          "type": "address"
        },
        {
          "internalType": "uint256",
          "name": "boxId",
          "type": "uint256"
        }
      ],
      "name": "shareFunds",
      "outputs": [],
      "stateMutability": "payable",
      "type": "function"
    },
    {
      "inputs": [
        {
          "internalType": "uint256",
          "name": "id",
          "type": "uint256"
        },
        {
          "internalType": "string",
          "name": "status",
          "type": "string"
        }
      ],
      "name": "updateAidBoxStatus",
      "outputs": [],
      "stateMutability": "nonpayable",
      "type": "function"
    },
    {
      "inputs": [
        {
          "internalType": "uint256",
          "name": "",
          "type": "uint256"
        }
      ],
      "name": "validStatuses",
      "outputs": [
        {
          "internalType": "string",
          "name": "",
          "type": "string"
        }
      ],
      "stateMutability": "view",
      "type": "function"
    }
  ],
  "bytecode": "0x60806040526040518060a001604052806040518060400160405280600781526020017f50656e64696e670000000000000000000000000000000000000000000000000081525081526020016040518060400160405280600981526020017f44656c697665726564000000000000000000000000000000000000000000000081525081526020016040518060400160405280600a81526020017f496e205472616e7369740000000000000000000000000000000000000000000081525081526020016040518060400160405280600981526020017f43616e63656c6c6564000000000000000000000000000000000000000000000081525081526020016040518060400160405280600e81526020017f52656365697665642046756e64730000000000000000000000000000000000008152508152506001906005620001469291906200019b565b503480156200015457600080fd5b50336000806101000a81548173ffffffffffffffffffffffffffffffffffffffff021916908373ffffffffffffffffffffffffffffffffffffffff160217905550620005e9565b828054828255906000526020600020908101928215620001e8579160200282015b82811115620001e7578251829081620001d6919062000502565b5091602001919060010190620001bc565b5b509050620001f79190620001fb565b5090565b5b808211156200021f576000818162000215919062000223565b50600101620001fc565b5090565b5080546200023190620002f1565b6000825580601f1062000245575062000266565b601f01602090049060005260206000209081019062000265919062000269565b5b50565b5b80821115620002845760008160009055506001016200026a565b5090565b600081519050919050565b7f4e487b7100000000000000000000000000000000000000000000000000000000600052604160045260246000fd5b7f4e487b7100000000000000000000000000000000000000000000000000000000600052602260045260246000fd5b600060028204905060018216806200030a57607f821691505b60208210810362000320576200031f620002c2565b5b50919050565b60008190508160005260206000209050919050565b60006020601f8301049050919050565b600082821b905092915050565b6000600883026200038a7fffffffffffffffffffffffffffffffffffffffffffffffffffffffffffffffff826200034b565b6200039686836200034b565b95508019841693508086168417925050509392505050565b6000819050919050565b6000819050919050565b6000620003e3620003dd620003d784620003ae565b620003b8565b620003ae565b9050919050565b6000819050919050565b620003ff83620003c2565b620004176200040e82620003ea565b84845462000358565b825550505050565b600090565b6200042e6200041f565b6200043b818484620003f4565b505050565b5b8181101562000463576200045760008262000424565b60018101905062000441565b5050565b601f821115620004b2576200047c8162000326565b62000487846200033b565b8101602085101562000497578190505b620004af620004a6856200033b565b83018262000440565b50505b505050565b600082821c905092915050565b6000620004d760001984600802620004b7565b1980831691505092915050565b6000620004f28383620004c4565b9150826002028217905092915050565b6200050d8262000288565b67ffffffffffffffff81111562000529576200052862000293565b5b620005358254620002f1565b6200054282828562000467565b600060209050601f8311600181146200057a576000841562000565578287015190505b620005718582620004e4565b865550620005e1565b601f1984166200058a8662000326565b60005b82811015620005b4578489015182556001820191506020850194506020810190506200058d565b86831015620005d45784890151620005d0601f891682620004c4565b8355505b6001600288020188555050505b505050505050565b611aa480620005f96000396000f3fe6080604052600436106100865760003560e01c8063afb6354011610059578063afb6354014610147578063d5b3b3f514610184578063d7ec5cfc146101ad578063db7aa531146101c9578063e7c546001461020857610086565b8063290b5ec71461008b57806361b8ce8c146100b45780638899800c146100df5780638da5cb5b1461011c575b600080fd5b34801561009757600080fd5b506100b260048036038101906100ad9190610d8d565b610231565b005b3480156100c057600080fd5b506100c961038e565b6040516100d69190610e1e565b60405180910390f35b3480156100eb57600080fd5b5061010660048036038101906101019190610e65565b610394565b6040516101139190610f11565b60405180910390f35b34801561012857600080fd5b50610131610440565b60405161013e9190610f74565b60405180910390f35b34801561015357600080fd5b5061016e60048036038101906101699190610e65565b610464565b60405161017b919061103f565b60405180910390f35b34801561019057600080fd5b506101ab60048036038101906101a69190611061565b610603565b005b6101c760048036038101906101c291906110e9565b61077e565b005b3480156101d557600080fd5b506101f060048036038101906101eb9190610e65565b610a1c565b6040516101ff93929190611129565b60405180910390f35b34801561021457600080fd5b5061022f600480360381019061022a919061116e565b610b56565b005b60008054906101000a900473ffffffffffffffffffffffffffffffffffffffff1673ffffffffffffffffffffffffffffffffffffffff163373ffffffffffffffffffffffffffffffffffffffff16146102bf576040517f08c379a00000000000000000000000000000000000000000000000000000000081526004016102b69061123c565b60405180910390fd5b6102c881610b95565b610307576040517f08c379a00000000000000000000000000000000000000000000000000000000081526004016102fe906112a8565b60405180910390fd5b604051806060016040528060035481526020018381526020018281525060026000600354815260200190815260200160002060008201518160000155602082015181600101908161035891906114d4565b50604082015181600201908161036e91906114d4565b5090505060036000815480929190610385906115d5565b91905055505050565b60035481565b600181815481106103a457600080fd5b9060005260206000200160009150905080546103bf906112f7565b80601f01602080910402602001604051908101604052809291908181526020018280546103eb906112f7565b80156104385780601f1061040d57610100808354040283529160200191610438565b820191906000526020600020905b81548152906001019060200180831161041b57829003601f168201915b505050505081565b60008054906101000a900473ffffffffffffffffffffffffffffffffffffffff1681565b61046c610c12565b60035482106104b0576040517f08c379a00000000000000000000000000000000000000000000000000000000081526004016104a790611669565b60405180910390fd5b60026000838152602001908152602001600020604051806060016040529081600082015481526020016001820180546104e8906112f7565b80601f0160208091040260200160405190810160405280929190818152602001828054610514906112f7565b80156105615780601f1061053657610100808354040283529160200191610561565b820191906000526020600020905b81548152906001019060200180831161054457829003601f168201915b5050505050815260200160028201805461057a906112f7565b80601f01602080910402602001604051908101604052809291908181526020018280546105a6906112f7565b80156105f35780601f106105c8576101008083540402835291602001916105f3565b820191906000526020600020905b8154815290600101906020018083116105d657829003601f168201915b5050505050815250509050919050565b60008054906101000a900473ffffffffffffffffffffffffffffffffffffffff1673ffffffffffffffffffffffffffffffffffffffff163373ffffffffffffffffffffffffffffffffffffffff1614610691576040517f08c379a00000000000000000000000000000000000000000000000000000000081526004016106889061123c565b60405180910390fd5b60035482106106d5576040517f08c379a00000000000000000000000000000000000000000000000000000000081526004016106cc90611669565b60405180910390fd5b6106de81610b95565b61071d576040517f08c379a0000000000000000000000000000000000000000000000000000000008152600401610714906112a8565b60405180910390fd5b8060026000848152602001908152602001600020600201908161074091906114d4565b507fdab47a09412b5193aff2c36c4d82ffe170628d06e8479c97ae4ed6cfba6aa6fd8282604051610772929190611689565b60405180910390a15050565b600073ffffffffffffffffffffffffffffffffffffffff168273ffffffffffffffffffffffffffffffffffffffff16036107ed576040517f08c379a00000000000000000000000000000000000000000000000000000000081526004016107e490611705565b60405180910390fd5b60003411610830576040517f08c379a000000000000000000000000000000000000000000000000000000000815260040161082790611771565b60405180910390fd5b6003548110610874576040517f08c379a000000000000000000000000000000000000000000000000000000000815260040161086b906117dd565b60405180910390fd5b60008273ffffffffffffffffffffffffffffffffffffffff163460405161089a9061182e565b60006040518083038185875af1925050503d80600081146108d7576040519150601f19603f3d011682016040523d82523d6000602084013e6108dc565b606091505b5050905080610920576040517f08c379a00000000000000000000000000000000000000000000000000000000081526004016109179061188f565b60405180910390fd5b8273ffffffffffffffffffffffffffffffffffffffff163373ffffffffffffffffffffffffffffffffffffffff167f3fff7a422b9ac86500c353cfdce1786906183ff5ecb2872876af007980602616844260405161097f9291906118af565b60405180910390a36040518060400160405280600e81526020017f52656365697665642046756e64730000000000000000000000000000000000008152506002600084815260200190815260200160002060020190816109df91906114d4565b507fdab47a09412b5193aff2c36c4d82ffe170628d06e8479c97ae4ed6cfba6aa6fd82604051610a0f9190611924565b60405180910390a1505050565b6002602052806000526040600020600091509050806000015490806001018054610a45906112f7565b80601f0160208091040260200160405190810160405280929190818152602001828054610a71906112f7565b8015610abe5780601f10610a9357610100808354040283529160200191610abe565b820191906000526020600020905b815481529060010190602001808311610aa157829003601f168201915b505050505090806002018054610ad3906112f7565b80601f0160208091040260200160405190810160405280929190818152602001828054610aff906112f7565b8015610b4c5780601f10610b2157610100808354040283529160200191610b4c565b820191906000526020600020905b815481529060010190602001808311610b2f57829003601f168201915b5050505050905083565b7f4f6346e940b71393ab3e4b047c39b2e81c33032ae767224788a5e8ab3c2d28bd338383604051610b8993929190611952565b60405180910390a15050565b600080600090505b600180549050811015610c075760018181548110610bbe57610bbd611990565b5b90600052602060002001604051610bd59190611a57565b6040518091039020838051906020012003610bf4576001915050610c0d565b8080610bff906115d5565b915050610b9d565b50600090505b919050565b60405180606001604052806000815260200160608152602001606081525090565b6000604051905090565b600080fd5b600080fd5b600080fd5b600080fd5b6000601f19601f8301169050919050565b7f4e487b7100000000000000000000000000000000000000000000000000000000600052604160045260246000fd5b610c9a82610c51565b810181811067ffffffffffffffff82111715610cb957610cb8610c62565b5b80604052505050565b6000610ccc610c33565b9050610cd88282610c91565b919050565b600067ffffffffffffffff821115610cf857610cf7610c62565b5b610d0182610c51565b9050602081019050919050565b82818337600083830152505050565b6000610d30610d2b84610cdd565b610cc2565b905082815260208101848484011115610d4c57610d4b610c4c565b5b610d57848285610d0e565b509392505050565b600082601f830112610d7457610d73610c47565b5b8135610d84848260208601610d1d565b91505092915050565b60008060408385031215610da457610da3610c3d565b5b600083013567ffffffffffffffff811115610dc257610dc1610c42565b5b610dce85828601610d5f565b925050602083013567ffffffffffffffff811115610def57610dee610c42565b5b610dfb85828601610d5f565b9150509250929050565b6000819050919050565b610e1881610e05565b82525050565b6000602082019050610e336000830184610e0f565b92915050565b610e4281610e05565b8114610e4d57600080fd5b50565b600081359050610e5f81610e39565b92915050565b600060208284031215610e7b57610e7a610c3d565b5b6000610e8984828501610e50565b91505092915050565b600081519050919050565b600082825260208201905092915050565b60005b83811015610ecc578082015181840152602081019050610eb1565b60008484015250505050565b6000610ee382610e92565b610eed8185610e9d565b9350610efd818560208601610eae565b610f0681610c51565b840191505092915050565b60006020820190508181036000830152610f2b8184610ed8565b905092915050565b600073ffffffffffffffffffffffffffffffffffffffff82169050919050565b6000610f5e82610f33565b9050919050565b610f6e81610f53565b82525050565b6000602082019050610f896000830184610f65565b92915050565b610f9881610e05565b82525050565b600082825260208201905092915050565b6000610fba82610e92565b610fc48185610f9e565b9350610fd4818560208601610eae565b610fdd81610c51565b840191505092915050565b60006060830160008301516110006000860182610f8f565b50602083015184820360208601526110188282610faf565b915050604083015184820360408601526110328282610faf565b9150508091505092915050565b600060208201905081810360008301526110598184610fe8565b905092915050565b6000806040838503121561107857611077610c3d565b5b600061108685828601610e50565b925050602083013567ffffffffffffffff8111156110a7576110a6610c42565b5b6110b385828601610d5f565b9150509250929050565b6110c681610f53565b81146110d157600080fd5b50565b6000813590506110e3816110bd565b92915050565b60008060408385031215611100576110ff610c3d565b5b600061110e858286016110d4565b925050602061111f85828601610e50565b9150509250929050565b600060608201905061113e6000830186610e0f565b81810360208301526111508185610ed8565b905081810360408301526111648184610ed8565b9050949350505050565b6000806040838503121561118557611184610c3d565b5b6000611193858286016110d4565b925050602083013567ffffffffffffffff8111156111b4576111b3610c42565b5b6111c085828601610d5f565b9150509250929050565b7f4f6e6c7920746865206f776e65722063616e20706572666f726d20746869732060008201527f616374696f6e0000000000000000000000000000000000000000000000000000602082015250565b6000611226602683610e9d565b9150611231826111ca565b604082019050919050565b6000602082019050818103600083015261125581611219565b9050919050565b7f496e76616c696420737461747573000000000000000000000000000000000000600082015250565b6000611292600e83610e9d565b915061129d8261125c565b602082019050919050565b600060208201905081810360008301526112c181611285565b9050919050565b7f4e487b7100000000000000000000000000000000000000000000000000000000600052602260045260246000fd5b6000600282049050600182168061130f57607f821691505b602082108103611322576113216112c8565b5b50919050565b60008190508160005260206000209050919050565b60006020601f8301049050919050565b600082821b905092915050565b60006008830261138a7fffffffffffffffffffffffffffffffffffffffffffffffffffffffffffffffff8261134d565b611394868361134d565b95508019841693508086168417925050509392505050565b6000819050919050565b60006113d16113cc6113c784610e05565b6113ac565b610e05565b9050919050565b6000819050919050565b6113eb836113b6565b6113ff6113f7826113d8565b84845461135a565b825550505050565b600090565b611414611407565b61141f8184846113e2565b505050565b5b818110156114435761143860008261140c565b600181019050611425565b5050565b601f8211156114885761145981611328565b6114628461133d565b81016020851015611471578190505b61148561147d8561133d565b830182611424565b50505b505050565b600082821c905092915050565b60006114ab6000198460080261148d565b1980831691505092915050565b60006114c4838361149a565b9150826002028217905092915050565b6114dd82610e92565b67ffffffffffffffff8111156114f6576114f5610c62565b5b61150082546112f7565b61150b828285611447565b600060209050601f83116001811461153e576000841561152c578287015190505b61153685826114b8565b86555061159e565b601f19841661154c86611328565b60005b828110156115745784890151825560018201915060208501945060208101905061154f565b86831015611591578489015161158d601f89168261149a565b8355505b6001600288020188555050505b505050505050565b7f4e487b7100000000000000000000000000000000000000000000000000000000600052601160045260246000fd5b60006115e082610e05565b91507fffffffffffffffffffffffffffffffffffffffffffffffffffffffffffffffff8203611612576116116115a6565b5b600182019050919050565b7f416964426f7820646f6573206e6f742065786973740000000000000000000000600082015250565b6000611653601583610e9d565b915061165e8261161d565b602082019050919050565b6000602082019050818103600083015261168281611646565b9050919050565b600060408201905061169e6000830185610e0f565b81810360208301526116b08184610ed8565b90509392505050565b7f496e76616c696420726563656976657200000000000000000000000000000000600082015250565b60006116ef601083610e9d565b91506116fa826116b9565b602082019050919050565b6000602082019050818103600083015261171e816116e2565b9050919050565b7f4e6f204554482073656e74000000000000000000000000000000000000000000600082015250565b600061175b600b83610e9d565b915061176682611725565b602082019050919050565b6000602082019050818103600083015261178a8161174e565b9050919050565b7f496e76616c696420426f78204944000000000000000000000000000000000000600082015250565b60006117c7600e83610e9d565b91506117d282611791565b602082019050919050565b600060208201905081810360008301526117f6816117ba565b9050919050565b600081905092915050565b50565b60006118186000836117fd565b915061182382611808565b600082019050919050565b60006118398261180b565b9150819050919050565b7f5472616e73666572206661696c65640000000000000000000000000000000000600082015250565b6000611879600f83610e9d565b915061188482611843565b602082019050919050565b600060208201905081810360008301526118a88161186c565b9050919050565b60006040820190506118c46000830185610e0f565b6118d16020830184610e0f565b9392505050565b7f52656365697665642046756e6473000000000000000000000000000000000000600082015250565b600061190e600e83610e9d565b9150611919826118d8565b602082019050919050565b60006040820190506119396000830184610e0f565b818103602083015261194a81611901565b905092915050565b60006060820190506119676000830186610f65565b6119746020830185610f65565b81810360408301526119868184610ed8565b9050949350505050565b7f4e487b7100000000000000000000000000000000000000000000000000000000600052603260045260246000fd5b60008190508160005260206000209050919050565b600081546119e1816112f7565b6119eb81866117fd565b94506001821660008114611a065760018114611a1b57611a4e565b60ff1983168652811515820286019350611a4e565b611a24856119bf565b60005b83811015611a4657815481890152600182019150602081019050611a27565b838801955050505b50505092915050565b6000611a6382846119d4565b91508190509291505056fea2646970667358221220e5dd13f712f4f38683592ca4a289b8c375b28bb23e090b7d798bfcd29a7ae59664736f6c63430008120033",
  "linkReferences": {},
  "deployedLinkReferences": {}
}