{
  "_format": "hh-sol-artifact-1",
  "contractName": "AidBoxTracker",
  "sourceName": "contracts/AidBoxTracker.sol",
  "abi": [
    {
      "inputs": [],
      "stateMutability": "nonpayable",
      "type": "constructor"
    },
    {
      "anonymous": false,
      "inputs": [
        {
          "indexed": false,
          "internalType": "uint256",
          "name": "id",
          "type": "uint256"
        },
        {
          "indexed": false,
          "internalType": "string",
          "name": "newStatus",
          "type": "string"
        }
      ],
      "name": "AidBoxStatusUpdated",
      "type": "event"
    },
    {
      "anonymous": false,
      "inputs": [
        {
          "indexed": false,
          "internalType": "address",
          "name": "fromOrg",
          "type": "address"
        },
        {
          "indexed": false,
          "internalType": "address",
          "name": "toOrg",
          "type": "address"
        },
        {
          "indexed": false,
          "internalType": "string",
          "name": "details",
          "type": "string"
        }
      ],
      "name": "CollaborationRequested",
      "type": "event"
    },
    {
      "inputs": [
        {
          "internalType": "string",
          "name": "description",
          "type": "string"
        },
        {
          "internalType": "string",
          "name": "status",
          "type": "string"
        }
      ],
      "name": "addAidBox",
      "outputs": [],
      "stateMutability": "nonpayable",
      "type": "function"
    },
    {
      "inputs": [
        {
          "internalType": "uint256",
          "name": "",
          "type": "uint256"
        }
      ],
      "name": "aidBoxes",
      "outputs": [
        {
          "internalType": "uint256",
          "name": "id",
          "type": "uint256"
        },
        {
          "internalType": "string",
          "name": "description",
          "type": "string"
        },
        {
          "internalType": "string",
          "name": "status",
          "type": "string"
        },
        {
          "internalType": "address",
          "name": "createdBy",
          "type": "address"
        }
      ],
      "stateMutability": "view",
      "type": "function"
    },
    {
      "inputs": [
        {
          "internalType": "uint256",
          "name": "id",
          "type": "uint256"
        }
      ],
      "name": "getAidBox",
      "outputs": [
        {
          "components": [
            {
              "internalType": "uint256",
              "name": "id",
              "type": "uint256"
            },
            {
              "internalType": "string",
              "name": "description",
              "type": "string"
            },
            {
              "internalType": "string",
              "name": "status",
              "type": "string"
            },
            {
              "internalType": "address",
              "name": "createdBy",
              "type": "address"
            }
          ],
          "internalType": "struct AidBoxTracker.AidBox",
          "name": "",
          "type": "tuple"
        }
      ],
      "stateMutability": "view",
      "type": "function"
    },
    {
      "inputs": [],
      "name": "nextId",
      "outputs": [
        {
          "internalType": "uint256",
          "name": "",
          "type": "uint256"
        }
      ],
      "stateMutability": "view",
      "type": "function"
    },
    {
      "inputs": [
        {
          "internalType": "address",
          "name": "",
          "type": "address"
        }
      ],
      "name": "organizations",
      "outputs": [
        {
          "internalType": "string",
          "name": "",
          "type": "string"
        }
      ],
      "stateMutability": "view",
      "type": "function"
    },
    {
      "inputs": [],
      "name": "owner",
      "outputs": [
        {
          "internalType": "address",
          "name": "",
          "type": "address"
        }
      ],
      "stateMutability": "view",
      "type": "function"
    },
    {
      "inputs": [
        {
          "internalType": "string",
          "name": "name",
          "type": "string"
        }
      ],
      "name": "registerOrg",
      "outputs": [],
      "stateMutability": "nonpayable",
      "type": "function"
    },
    {
      "inputs": [
        {
          "internalType": "address",
          "name": "toOrg",
          "type": "address"
        },
        {
          "internalType": "string",
          "name": "details",
          "type": "string"
        }
      ],
      "name": "requestCollaboration",
      "outputs": [],
      "stateMutability": "nonpayable",
      "type": "function"
    },
    {
      "inputs": [
        {
          "internalType": "uint256",
          "name": "id",
          "type": "uint256"
        },
        {
          "internalType": "string",
          "name": "status",
          "type": "string"
        }
      ],
      "name": "updateAidBoxStatus",
      "outputs": [],
      "stateMutability": "nonpayable",
      "type": "function"
    },
    {
      "inputs": [
        {
          "internalType": "uint256",
          "name": "",
          "type": "uint256"
        }
      ],
      "name": "validStatuses",
      "outputs": [
        {
          "internalType": "string",
          "name": "",
          "type": "string"
        }
      ],
      "stateMutability": "view",
      "type": "function"
    }
  ],
  "bytecode": "0x608060405260405180608001604052806040518060400160405280600781526020017f50656e64696e670000000000000000000000000000000000000000000000000081525081526020016040518060400160405280600981526020017f44656c697665726564000000000000000000000000000000000000000000000081525081526020016040518060400160405280600a81526020017f496e205472616e7369740000000000000000000000000000000000000000000081525081526020016040518060400160405280600981526020017f43616e63656c6c6564000000000000000000000000000000000000000000000081525081525060019060046200010b92919062000160565b503480156200011957600080fd5b50336000806101000a81548173ffffffffffffffffffffffffffffffffffffffff021916908373ffffffffffffffffffffffffffffffffffffffff160217905550620005ae565b828054828255906000526020600020908101928215620001ad579160200282015b82811115620001ac5782518290816200019b9190620004c7565b509160200191906001019062000181565b5b509050620001bc9190620001c0565b5090565b5b80821115620001e45760008181620001da9190620001e8565b50600101620001c1565b5090565b508054620001f690620002b6565b6000825580601f106200020a57506200022b565b601f0160209004906000526020600020908101906200022a91906200022e565b5b50565b5b80821115620002495760008160009055506001016200022f565b5090565b600081519050919050565b7f4e487b7100000000000000000000000000000000000000000000000000000000600052604160045260246000fd5b7f4e487b7100000000000000000000000000000000000000000000000000000000600052602260045260246000fd5b60006002820490506001821680620002cf57607f821691505b602082108103620002e557620002e462000287565b5b50919050565b60008190508160005260206000209050919050565b60006020601f8301049050919050565b600082821b905092915050565b6000600883026200034f7fffffffffffffffffffffffffffffffffffffffffffffffffffffffffffffffff8262000310565b6200035b868362000310565b95508019841693508086168417925050509392505050565b6000819050919050565b6000819050919050565b6000620003a8620003a26200039c8462000373565b6200037d565b62000373565b9050919050565b6000819050919050565b620003c48362000387565b620003dc620003d382620003af565b8484546200031d565b825550505050565b600090565b620003f3620003e4565b62000400818484620003b9565b505050565b5b8181101562000428576200041c600082620003e9565b60018101905062000406565b5050565b601f82111562000477576200044181620002eb565b6200044c8462000300565b810160208510156200045c578190505b620004746200046b8562000300565b83018262000405565b50505b505050565b600082821c905092915050565b60006200049c600019846008026200047c565b1980831691505092915050565b6000620004b7838362000489565b9150826002028217905092915050565b620004d2826200024d565b67ffffffffffffffff811115620004ee57620004ed62000258565b5b620004fa8254620002b6565b620005078282856200042c565b600060209050601f8311600181146200053f57600084156200052a578287015190505b620005368582620004a9565b865550620005a6565b601f1984166200054f86620002eb565b60005b82811015620005795784890151825560018201915060208501945060208101905062000552565b8683101562000599578489015162000595601f89168262000489565b8355505b6001600288020188555050505b505050505050565b611a2d80620005be6000396000f3fe608060405234801561001057600080fd5b506004361061009e5760003560e01c8063afb6354011610066578063afb635401461015b578063c2312b841461018b578063d5b3b3f5146101a7578063db7aa531146101c3578063e7c54600146101f65761009e565b8063290b5ec7146100a35780635a1f7406146100bf57806361b8ce8c146100ef5780638899800c1461010d5780638da5cb5b1461013d575b600080fd5b6100bd60048036038101906100b89190610e66565b610212565b005b6100d960048036038101906100d49190610f3c565b6103d2565b6040516100e69190610fe8565b60405180910390f35b6100f7610472565b6040516101049190611023565b60405180910390f35b6101276004803603810190610122919061106a565b610478565b6040516101349190610fe8565b60405180910390f35b610145610524565b60405161015291906110a6565b60405180910390f35b6101756004803603810190610170919061106a565b610548565b6040516101829190611193565b60405180910390f35b6101a560048036038101906101a091906111b5565b61073d565b005b6101c160048036038101906101bc91906111fe565b61081b565b005b6101dd60048036038101906101d8919061106a565b610996565b6040516101ed949392919061125a565b60405180910390f35b610210600480360381019061020b91906112ad565b610af6565b005b6000600460003373ffffffffffffffffffffffffffffffffffffffff1673ffffffffffffffffffffffffffffffffffffffff168152602001908152602001600020805461025e90611338565b9050116102a0576040517f08c379a0000000000000000000000000000000000000000000000000000000008152600401610297906113b5565b60405180910390fd5b6102a981610c51565b6102e8576040517f08c379a00000000000000000000000000000000000000000000000000000000081526004016102df90611421565b60405180910390fd5b604051806080016040528060035481526020018381526020018281526020013373ffffffffffffffffffffffffffffffffffffffff1681525060026000600354815260200190815260200160002060008201518160000155602082015181600101908161035591906115ed565b50604082015181600201908161036b91906115ed565b5060608201518160030160006101000a81548173ffffffffffffffffffffffffffffffffffffffff021916908373ffffffffffffffffffffffffffffffffffffffff160217905550905050600360008154809291906103c9906116ee565b91905055505050565b600460205280600052604060002060009150905080546103f190611338565b80601f016020809104026020016040519081016040528092919081815260200182805461041d90611338565b801561046a5780601f1061043f5761010080835404028352916020019161046a565b820191906000526020600020905b81548152906001019060200180831161044d57829003601f168201915b505050505081565b60035481565b6001818154811061048857600080fd5b9060005260206000200160009150905080546104a390611338565b80601f01602080910402602001604051908101604052809291908181526020018280546104cf90611338565b801561051c5780601f106104f15761010080835404028352916020019161051c565b820191906000526020600020905b8154815290600101906020018083116104ff57829003601f168201915b505050505081565b60008054906101000a900473ffffffffffffffffffffffffffffffffffffffff1681565b610550610cce565b6003548210610594576040517f08c379a000000000000000000000000000000000000000000000000000000000815260040161058b90611782565b60405180910390fd5b60026000838152602001908152602001600020604051806080016040529081600082015481526020016001820180546105cc90611338565b80601f01602080910402602001604051908101604052809291908181526020018280546105f890611338565b80156106455780601f1061061a57610100808354040283529160200191610645565b820191906000526020600020905b81548152906001019060200180831161062857829003601f168201915b5050505050815260200160028201805461065e90611338565b80601f016020809104026020016040519081016040528092919081815260200182805461068a90611338565b80156106d75780601f106106ac576101008083540402835291602001916106d7565b820191906000526020600020905b8154815290600101906020018083116106ba57829003601f168201915b505050505081526020016003820160009054906101000a900473ffffffffffffffffffffffffffffffffffffffff1673ffffffffffffffffffffffffffffffffffffffff1673ffffffffffffffffffffffffffffffffffffffff16815250509050919050565b6000600460003373ffffffffffffffffffffffffffffffffffffffff1673ffffffffffffffffffffffffffffffffffffffff168152602001908152602001600020805461078990611338565b9050146107cb576040517f08c379a00000000000000000000000000000000000000000000000000000000081526004016107c2906117ee565b60405180910390fd5b80600460003373ffffffffffffffffffffffffffffffffffffffff1673ffffffffffffffffffffffffffffffffffffffff168152602001908152602001600020908161081791906115ed565b5050565b6000600460003373ffffffffffffffffffffffffffffffffffffffff1673ffffffffffffffffffffffffffffffffffffffff168152602001908152602001600020805461086790611338565b9050116108a9576040517f08c379a00000000000000000000000000000000000000000000000000000000081526004016108a0906113b5565b60405180910390fd5b60035482106108ed576040517f08c379a00000000000000000000000000000000000000000000000000000000081526004016108e490611782565b60405180910390fd5b6108f681610c51565b610935576040517f08c379a000000000000000000000000000000000000000000000000000000000815260040161092c90611421565b60405180910390fd5b8060026000848152602001908152602001600020600201908161095891906115ed565b507fdab47a09412b5193aff2c36c4d82ffe170628d06e8479c97ae4ed6cfba6aa6fd828260405161098a92919061180e565b60405180910390a15050565b60026020528060005260406000206000915090508060000154908060010180546109bf90611338565b80601f01602080910402602001604051908101604052809291908181526020018280546109eb90611338565b8015610a385780601f10610a0d57610100808354040283529160200191610a38565b820191906000526020600020905b815481529060010190602001808311610a1b57829003601f168201915b505050505090806002018054610a4d90611338565b80601f0160208091040260200160405190810160405280929190818152602001828054610a7990611338565b8015610ac65780601f10610a9b57610100808354040283529160200191610ac6565b820191906000526020600020905b815481529060010190602001808311610aa957829003601f168201915b5050505050908060030160009054906101000a900473ffffffffffffffffffffffffffffffffffffffff16905084565b6000600460003373ffffffffffffffffffffffffffffffffffffffff1673ffffffffffffffffffffffffffffffffffffffff1681526020019081526020016000208054610b4290611338565b905011610b84576040517f08c379a0000000000000000000000000000000000000000000000000000000008152600401610b7b906113b5565b60405180910390fd5b6000600460008473ffffffffffffffffffffffffffffffffffffffff1673ffffffffffffffffffffffffffffffffffffffff1681526020019081526020016000208054610bd090611338565b905011610c12576040517f08c379a0000000000000000000000000000000000000000000000000000000008152600401610c09906118b0565b60405180910390fd5b7f4f6346e940b71393ab3e4b047c39b2e81c33032ae767224788a5e8ab3c2d28bd338383604051610c45939291906118d0565b60405180910390a15050565b600080600090505b600180549050811015610cc35760018181548110610c7a57610c7961190e565b5b90600052602060002001604051610c9191906119e0565b6040518091039020838051906020012003610cb0576001915050610cc9565b8080610cbb906116ee565b915050610c59565b50600090505b919050565b6040518060800160405280600081526020016060815260200160608152602001600073ffffffffffffffffffffffffffffffffffffffff1681525090565b6000604051905090565b600080fd5b600080fd5b600080fd5b600080fd5b6000601f19601f8301169050919050565b7f4e487b7100000000000000000000000000000000000000000000000000000000600052604160045260246000fd5b610d7382610d2a565b810181811067ffffffffffffffff82111715610d9257610d91610d3b565b5b80604052505050565b6000610da5610d0c565b9050610db18282610d6a565b919050565b600067ffffffffffffffff821115610dd157610dd0610d3b565b5b610dda82610d2a565b9050602081019050919050565b82818337600083830152505050565b6000610e09610e0484610db6565b610d9b565b905082815260208101848484011115610e2557610e24610d25565b5b610e30848285610de7565b509392505050565b600082601f830112610e4d57610e4c610d20565b5b8135610e5d848260208601610df6565b91505092915050565b60008060408385031215610e7d57610e7c610d16565b5b600083013567ffffffffffffffff811115610e9b57610e9a610d1b565b5b610ea785828601610e38565b925050602083013567ffffffffffffffff811115610ec857610ec7610d1b565b5b610ed485828601610e38565b9150509250929050565b600073ffffffffffffffffffffffffffffffffffffffff82169050919050565b6000610f0982610ede565b9050919050565b610f1981610efe565b8114610f2457600080fd5b50565b600081359050610f3681610f10565b92915050565b600060208284031215610f5257610f51610d16565b5b6000610f6084828501610f27565b91505092915050565b600081519050919050565b600082825260208201905092915050565b60005b83811015610fa3578082015181840152602081019050610f88565b60008484015250505050565b6000610fba82610f69565b610fc48185610f74565b9350610fd4818560208601610f85565b610fdd81610d2a565b840191505092915050565b600060208201905081810360008301526110028184610faf565b905092915050565b6000819050919050565b61101d8161100a565b82525050565b60006020820190506110386000830184611014565b92915050565b6110478161100a565b811461105257600080fd5b50565b6000813590506110648161103e565b92915050565b6000602082840312156110805761107f610d16565b5b600061108e84828501611055565b91505092915050565b6110a081610efe565b82525050565b60006020820190506110bb6000830184611097565b92915050565b6110ca8161100a565b82525050565b600082825260208201905092915050565b60006110ec82610f69565b6110f681856110d0565b9350611106818560208601610f85565b61110f81610d2a565b840191505092915050565b61112381610efe565b82525050565b600060808301600083015161114160008601826110c1565b506020830151848203602086015261115982826110e1565b9150506040830151848203604086015261117382826110e1565b9150506060830151611188606086018261111a565b508091505092915050565b600060208201905081810360008301526111ad8184611129565b905092915050565b6000602082840312156111cb576111ca610d16565b5b600082013567ffffffffffffffff8111156111e9576111e8610d1b565b5b6111f584828501610e38565b91505092915050565b6000806040838503121561121557611214610d16565b5b600061122385828601611055565b925050602083013567ffffffffffffffff81111561124457611243610d1b565b5b61125085828601610e38565b9150509250929050565b600060808201905061126f6000830187611014565b81810360208301526112818186610faf565b905081810360408301526112958185610faf565b90506112a46060830184611097565b95945050505050565b600080604083850312156112c4576112c3610d16565b5b60006112d285828601610f27565b925050602083013567ffffffffffffffff8111156112f3576112f2610d1b565b5b6112ff85828601610e38565b9150509250929050565b7f4e487b7100000000000000000000000000000000000000000000000000000000600052602260045260246000fd5b6000600282049050600182168061135057607f821691505b60208210810361136357611362611309565b5b50919050565b7f4e6f7420612072656769737465726564206f7267616e697a6174696f6e000000600082015250565b600061139f601d83610f74565b91506113aa82611369565b602082019050919050565b600060208201905081810360008301526113ce81611392565b9050919050565b7f496e76616c696420737461747573000000000000000000000000000000000000600082015250565b600061140b600e83610f74565b9150611416826113d5565b602082019050919050565b6000602082019050818103600083015261143a816113fe565b9050919050565b60008190508160005260206000209050919050565b60006020601f8301049050919050565b600082821b905092915050565b6000600883026114a37fffffffffffffffffffffffffffffffffffffffffffffffffffffffffffffffff82611466565b6114ad8683611466565b95508019841693508086168417925050509392505050565b6000819050919050565b60006114ea6114e56114e08461100a565b6114c5565b61100a565b9050919050565b6000819050919050565b611504836114cf565b611518611510826114f1565b848454611473565b825550505050565b600090565b61152d611520565b6115388184846114fb565b505050565b5b8181101561155c57611551600082611525565b60018101905061153e565b5050565b601f8211156115a15761157281611441565b61157b84611456565b8101602085101561158a578190505b61159e61159685611456565b83018261153d565b50505b505050565b600082821c905092915050565b60006115c4600019846008026115a6565b1980831691505092915050565b60006115dd83836115b3565b9150826002028217905092915050565b6115f682610f69565b67ffffffffffffffff81111561160f5761160e610d3b565b5b6116198254611338565b611624828285611560565b600060209050601f8311600181146116575760008415611645578287015190505b61164f85826115d1565b8655506116b7565b601f19841661166586611441565b60005b8281101561168d57848901518255600182019150602085019450602081019050611668565b868310156116aa57848901516116a6601f8916826115b3565b8355505b6001600288020188555050505b505050505050565b7f4e487b7100000000000000000000000000000000000000000000000000000000600052601160045260246000fd5b60006116f98261100a565b91507fffffffffffffffffffffffffffffffffffffffffffffffffffffffffffffffff820361172b5761172a6116bf565b5b600182019050919050565b7f416964426f7820646f6573206e6f742065786973740000000000000000000000600082015250565b600061176c601583610f74565b915061177782611736565b602082019050919050565b6000602082019050818103600083015261179b8161175f565b9050919050565b7f416c726561647920726567697374657265640000000000000000000000000000600082015250565b60006117d8601283610f74565b91506117e3826117a2565b602082019050919050565b60006020820190508181036000830152611807816117cb565b9050919050565b60006040820190506118236000830185611014565b81810360208301526118358184610faf565b90509392505050565b7f546172676574206f7267616e697a6174696f6e206e6f7420726567697374657260008201527f6564000000000000000000000000000000000000000000000000000000000000602082015250565b600061189a602283610f74565b91506118a58261183e565b604082019050919050565b600060208201905081810360008301526118c98161188d565b9050919050565b60006060820190506118e56000830186611097565b6118f26020830185611097565b81810360408301526119048184610faf565b9050949350505050565b7f4e487b7100000000000000000000000000000000000000000000000000000000600052603260045260246000fd5b600081905092915050565b60008190508160005260206000209050919050565b6000815461196a81611338565b611974818661193d565b9450600182166000811461198f57600181146119a4576119d7565b60ff19831686528115158202860193506119d7565b6119ad85611948565b60005b838110156119cf578154818901526001820191506020810190506119b0565b838801955050505b50505092915050565b60006119ec828461195d565b91508190509291505056fea26469706673582212208e73b527b4a7d3702884e4ea906a72e3fc1948d80c206eb17169b5c4412982c764736f6c63430008120033",
  "linkReferences": {},
  "deployedLinkReferences": {}
}