{
  "_format": "hh-sol-artifact-1",
  "contractName": "AidBoxTracker",
  "sourceName": "contracts/AidBoxTracker.sol",
  "abi": [
    {
      "inputs": [],
      "stateMutability": "nonpayable",
      "type": "constructor"
    },
    {
      "anonymous": false,
      "inputs": [
        {
          "indexed": false,
          "internalType": "uint256",
          "name": "id",
          "type": "uint256"
        },
        {
          "indexed": false,
          "internalType": "string",
          "name": "newStatus",
          "type": "string"
        }
      ],
      "name": "AidBoxStatusUpdated",
      "type": "event"
    },
    {
      "anonymous": false,
      "inputs": [
        {
          "indexed": false,
          "internalType": "address",
          "name": "fromOrg",
          "type": "address"
        },
        {
          "indexed": false,
          "internalType": "address",
          "name": "toOrg",
          "type": "address"
        },
        {
          "indexed": false,
          "internalType": "string",
          "name": "details",
          "type": "string"
        }
      ],
      "name": "CollaborationRequested",
      "type": "event"
    },
    {
      "anonymous": false,
      "inputs": [
        {
          "indexed": true,
          "internalType": "address",
          "name": "sender",
          "type": "address"
        },
        {
          "indexed": true,
          "internalType": "address",
          "name": "receiver",
          "type": "address"
        },
        {
          "indexed": false,
          "internalType": "uint256",
          "name": "boxId",
          "type": "uint256"
        },
        {
          "indexed": false,
          "internalType": "uint256",
          "name": "timestamp",
          "type": "uint256"
        }
      ],
      "name": "FundsShared",
      "type": "event"
    },
    {
      "anonymous": false,
      "inputs": [
        {
          "indexed": true,
          "internalType": "uint256",
          "name": "boxId",
          "type": "uint256"
        },
        {
          "indexed": false,
          "internalType": "string",
          "name": "lat",
          "type": "string"
        },
        {
          "indexed": false,
          "internalType": "string",
          "name": "lon",
          "type": "string"
        },
        {
          "indexed": false,
          "internalType": "uint256",
          "name": "timestamp",
          "type": "uint256"
        }
      ],
      "name": "LocationLogged",
      "type": "event"
    },
    {
      "anonymous": false,
      "inputs": [
        {
          "indexed": true,
          "internalType": "uint256",
          "name": "boxId",
          "type": "uint256"
        },
        {
          "indexed": false,
          "internalType": "string",
          "name": "latlong",
          "type": "string"
        },
        {
          "indexed": false,
          "internalType": "uint256",
          "name": "timestamp",
          "type": "uint256"
        }
      ],
      "name": "LocationUpdated",
      "type": "event"
    },
    {
      "inputs": [
        {
          "internalType": "string",
          "name": "description",
          "type": "string"
        },
        {
          "internalType": "string",
          "name": "status",
          "type": "string"
        }
      ],
      "name": "addAidBox",
      "outputs": [],
      "stateMutability": "nonpayable",
      "type": "function"
    },
    {
      "inputs": [
        {
          "internalType": "uint256",
          "name": "",
          "type": "uint256"
        }
      ],
      "name": "aidBoxes",
      "outputs": [
        {
          "internalType": "uint256",
          "name": "id",
          "type": "uint256"
        },
        {
          "internalType": "string",
          "name": "description",
          "type": "string"
        },
        {
          "internalType": "string",
          "name": "status",
          "type": "string"
        }
      ],
      "stateMutability": "view",
      "type": "function"
    },
    {
      "inputs": [
        {
          "internalType": "uint256",
          "name": "",
          "type": "uint256"
        }
      ],
      "name": "boxCoordinates",
      "outputs": [
        {
          "internalType": "string",
          "name": "",
          "type": "string"
        }
      ],
      "stateMutability": "view",
      "type": "function"
    },
    {
      "inputs": [
        {
          "internalType": "uint256",
          "name": "id",
          "type": "uint256"
        }
      ],
      "name": "getAidBox",
      "outputs": [
        {
          "components": [
            {
              "internalType": "uint256",
              "name": "id",
              "type": "uint256"
            },
            {
              "internalType": "string",
              "name": "description",
              "type": "string"
            },
            {
              "internalType": "string",
              "name": "status",
              "type": "string"
            }
          ],
          "internalType": "struct AidBoxTracker.AidBox",
          "name": "",
          "type": "tuple"
        }
      ],
      "stateMutability": "view",
      "type": "function"
    },
    {
      "inputs": [
        {
          "internalType": "uint256",
          "name": "boxId",
          "type": "uint256"
        },
        {
          "internalType": "string",
          "name": "lat",
          "type": "string"
        },
        {
          "internalType": "string",
          "name": "lon",
          "type": "string"
        }
      ],
      "name": "logLocation",
      "outputs": [],
      "stateMutability": "nonpayable",
      "type": "function"
    },
    {
      "inputs": [],
      "name": "nextId",
      "outputs": [
        {
          "internalType": "uint256",
          "name": "",
          "type": "uint256"
        }
      ],
      "stateMutability": "view",
      "type": "function"
    },
    {
      "inputs": [],
      "name": "owner",
      "outputs": [
        {
          "internalType": "address",
          "name": "",
          "type": "address"
        }
      ],
      "stateMutability": "view",
      "type": "function"
    },
    {
      "inputs": [
        {
          "internalType": "address",
          "name": "toOrg",
          "type": "address"
        },
        {
          "internalType": "string",
          "name": "details",
          "type": "string"
        }
      ],
      "name": "requestCollaboration",
      "outputs": [],
      "stateMutability": "nonpayable",
      "type": "function"
    },
    {
      "inputs": [
        {
          "internalType": "address",
          "name": "toOrg",
          "type": "address"
        },
        {
          "internalType": "uint256",
          "name": "boxId",
          "type": "uint256"
        }
      ],
      "name": "shareFunds",
      "outputs": [],
      "stateMutability": "payable",
      "type": "function"
    },
    {
      "inputs": [
        {
          "internalType": "uint256",
          "name": "id",
          "type": "uint256"
        },
        {
          "internalType": "string",
          "name": "status",
          "type": "string"
        }
      ],
      "name": "updateAidBoxStatus",
      "outputs": [],
      "stateMutability": "nonpayable",
      "type": "function"
    },
    {
      "inputs": [
        {
          "internalType": "uint256",
          "name": "boxId",
          "type": "uint256"
        },
        {
          "internalType": "string",
          "name": "latlong",
          "type": "string"
        }
      ],
      "name": "updateLocation",
      "outputs": [],
      "stateMutability": "nonpayable",
      "type": "function"
    },
    {
      "inputs": [
        {
          "internalType": "uint256",
          "name": "",
          "type": "uint256"
        }
      ],
      "name": "validStatuses",
      "outputs": [
        {
          "internalType": "string",
          "name": "",
          "type": "string"
        }
      ],
      "stateMutability": "view",
      "type": "function"
    }
  ],
  "bytecode": "0x60806040526040518060a001604052806040518060400160405280600781526020017f50656e64696e670000000000000000000000000000000000000000000000000081525081526020016040518060400160405280600981526020017f44656c697665726564000000000000000000000000000000000000000000000081525081526020016040518060400160405280600a81526020017f496e205472616e7369740000000000000000000000000000000000000000000081525081526020016040518060400160405280600981526020017f43616e63656c6c6564000000000000000000000000000000000000000000000081525081526020016040518060400160405280600e81526020017f52656365697665642046756e64730000000000000000000000000000000000008152508152506001906005620001469291906200019b565b503480156200015457600080fd5b50336000806101000a81548173ffffffffffffffffffffffffffffffffffffffff021916908373ffffffffffffffffffffffffffffffffffffffff160217905550620005e9565b828054828255906000526020600020908101928215620001e8579160200282015b82811115620001e7578251829081620001d6919062000502565b5091602001919060010190620001bc565b5b509050620001f79190620001fb565b5090565b5b808211156200021f576000818162000215919062000223565b50600101620001fc565b5090565b5080546200023190620002f1565b6000825580601f1062000245575062000266565b601f01602090049060005260206000209081019062000265919062000269565b5b50565b5b80821115620002845760008160009055506001016200026a565b5090565b600081519050919050565b7f4e487b7100000000000000000000000000000000000000000000000000000000600052604160045260246000fd5b7f4e487b7100000000000000000000000000000000000000000000000000000000600052602260045260246000fd5b600060028204905060018216806200030a57607f821691505b60208210810362000320576200031f620002c2565b5b50919050565b60008190508160005260206000209050919050565b60006020601f8301049050919050565b600082821b905092915050565b6000600883026200038a7fffffffffffffffffffffffffffffffffffffffffffffffffffffffffffffffff826200034b565b6200039686836200034b565b95508019841693508086168417925050509392505050565b6000819050919050565b6000819050919050565b6000620003e3620003dd620003d784620003ae565b620003b8565b620003ae565b9050919050565b6000819050919050565b620003ff83620003c2565b620004176200040e82620003ea565b84845462000358565b825550505050565b600090565b6200042e6200041f565b6200043b818484620003f4565b505050565b5b8181101562000463576200045760008262000424565b60018101905062000441565b5050565b601f821115620004b2576200047c8162000326565b62000487846200033b565b8101602085101562000497578190505b620004af620004a6856200033b565b83018262000440565b50505b505050565b600082821c905092915050565b6000620004d760001984600802620004b7565b1980831691505092915050565b6000620004f28383620004c4565b9150826002028217905092915050565b6200050d8262000288565b67ffffffffffffffff81111562000529576200052862000293565b5b620005358254620002f1565b6200054282828562000467565b600060209050601f8311600181146200057a576000841562000565578287015190505b620005718582620004e4565b865550620005e1565b601f1984166200058a8662000326565b60005b82811015620005b4578489015182556001820191506020850194506020810190506200058d565b86831015620005d45784890151620005d0601f891682620004c4565b8355505b6001600288020188555050505b505050505050565b611e1c80620005f96000396000f3fe6080604052600436106100a75760003560e01c8063afb6354011610064578063afb63540146101ba578063d354d591146101f7578063d5b3b3f514610234578063d7ec5cfc1461025d578063db7aa53114610279578063e7c54600146102b8576100a7565b8063290b5ec7146100ac5780634ec0c9e9146100d557806361b8ce8c146100fe5780638899800c146101295780638922dca1146101665780638da5cb5b1461018f575b600080fd5b3480156100b857600080fd5b506100d360048036038101906100ce9190611005565b6102e1565b005b3480156100e157600080fd5b506100fc60048036038101906100f791906110b3565b61043e565b005b34801561010a57600080fd5b506101136104e1565b604051610120919061111e565b60405180910390f35b34801561013557600080fd5b50610150600480360381019061014b9190611139565b6104e7565b60405161015d91906111e5565b60405180910390f35b34801561017257600080fd5b5061018d60048036038101906101889190611207565b610593565b005b34801561019b57600080fd5b506101a4610618565b6040516101b191906112d3565b60405180910390f35b3480156101c657600080fd5b506101e160048036038101906101dc9190611139565b61063c565b6040516101ee919061139e565b60405180910390f35b34801561020357600080fd5b5061021e60048036038101906102199190611139565b6107db565b60405161022b91906111e5565b60405180910390f35b34801561024057600080fd5b5061025b600480360381019061025691906110b3565b61087b565b005b610277600480360381019061027291906113ec565b6109f6565b005b34801561028557600080fd5b506102a0600480360381019061029b9190611139565b610c94565b6040516102af9392919061142c565b60405180910390f35b3480156102c457600080fd5b506102df60048036038101906102da9190611471565b610dce565b005b60008054906101000a900473ffffffffffffffffffffffffffffffffffffffff1673ffffffffffffffffffffffffffffffffffffffff163373ffffffffffffffffffffffffffffffffffffffff161461036f576040517f08c379a00000000000000000000000000000000000000000000000000000000081526004016103669061153f565b60405180910390fd5b61037881610e0d565b6103b7576040517f08c379a00000000000000000000000000000000000000000000000000000000081526004016103ae906115ab565b60405180910390fd5b604051806060016040528060045481526020018381526020018281525060026000600454815260200190815260200160002060008201518160000155602082015181600101908161040891906117d7565b50604082015181600201908161041e91906117d7565b5090505060046000815480929190610435906118d8565b91905055505050565b6004548210610482576040517f08c379a00000000000000000000000000000000000000000000000000000000081526004016104799061196c565b60405180910390fd5b806003600084815260200190815260200160002090816104a291906117d7565b50817f08c1aa8a3ded74821ab8fe6981a7dd0f9ebb0c3fcef9196f34b9f4e9d0e4edcd82426040516104d592919061198c565b60405180910390a25050565b60045481565b600181815481106104f757600080fd5b906000526020600020016000915090508054610512906115fa565b80601f016020809104026020016040519081016040528092919081815260200182805461053e906115fa565b801561058b5780601f106105605761010080835404028352916020019161058b565b820191906000526020600020905b81548152906001019060200180831161056e57829003601f168201915b505050505081565b60045483106105d7576040517f08c379a00000000000000000000000000000000000000000000000000000000081526004016105ce9061196c565b60405180910390fd5b827f83c534923084760cf274ede533c4bbf3f6e16cbba8db0a22bdbb1ad61a64b7f283834260405161060b939291906119bc565b60405180910390a2505050565b60008054906101000a900473ffffffffffffffffffffffffffffffffffffffff1681565b610644610e8a565b6004548210610688576040517f08c379a000000000000000000000000000000000000000000000000000000000815260040161067f90611a4d565b60405180910390fd5b60026000838152602001908152602001600020604051806060016040529081600082015481526020016001820180546106c0906115fa565b80601f01602080910402602001604051908101604052809291908181526020018280546106ec906115fa565b80156107395780601f1061070e57610100808354040283529160200191610739565b820191906000526020600020905b81548152906001019060200180831161071c57829003601f168201915b50505050508152602001600282018054610752906115fa565b80601f016020809104026020016040519081016040528092919081815260200182805461077e906115fa565b80156107cb5780601f106107a0576101008083540402835291602001916107cb565b820191906000526020600020905b8154815290600101906020018083116107ae57829003601f168201915b5050505050815250509050919050565b600360205280600052604060002060009150905080546107fa906115fa565b80601f0160208091040260200160405190810160405280929190818152602001828054610826906115fa565b80156108735780601f1061084857610100808354040283529160200191610873565b820191906000526020600020905b81548152906001019060200180831161085657829003601f168201915b505050505081565b60008054906101000a900473ffffffffffffffffffffffffffffffffffffffff1673ffffffffffffffffffffffffffffffffffffffff163373ffffffffffffffffffffffffffffffffffffffff1614610909576040517f08c379a00000000000000000000000000000000000000000000000000000000081526004016109009061153f565b60405180910390fd5b600454821061094d576040517f08c379a000000000000000000000000000000000000000000000000000000000815260040161094490611a4d565b60405180910390fd5b61095681610e0d565b610995576040517f08c379a000000000000000000000000000000000000000000000000000000000815260040161098c906115ab565b60405180910390fd5b806002600084815260200190815260200160002060020190816109b891906117d7565b507fdab47a09412b5193aff2c36c4d82ffe170628d06e8479c97ae4ed6cfba6aa6fd82826040516109ea929190611a6d565b60405180910390a15050565b600073ffffffffffffffffffffffffffffffffffffffff168273ffffffffffffffffffffffffffffffffffffffff1603610a65576040517f08c379a0000000000000000000000000000000000000000000000000000000008152600401610a5c90611ae9565b60405180910390fd5b60003411610aa8576040517f08c379a0000000000000000000000000000000000000000000000000000000008152600401610a9f90611b55565b60405180910390fd5b6004548110610aec576040517f08c379a0000000000000000000000000000000000000000000000000000000008152600401610ae39061196c565b60405180910390fd5b60008273ffffffffffffffffffffffffffffffffffffffff1634604051610b1290611ba6565b60006040518083038185875af1925050503d8060008114610b4f576040519150601f19603f3d011682016040523d82523d6000602084013e610b54565b606091505b5050905080610b98576040517f08c379a0000000000000000000000000000000000000000000000000000000008152600401610b8f90611c07565b60405180910390fd5b8273ffffffffffffffffffffffffffffffffffffffff163373ffffffffffffffffffffffffffffffffffffffff167f3fff7a422b9ac86500c353cfdce1786906183ff5ecb2872876af0079806026168442604051610bf7929190611c27565b60405180910390a36040518060400160405280600e81526020017f52656365697665642046756e6473000000000000000000000000000000000000815250600260008481526020019081526020016000206002019081610c5791906117d7565b507fdab47a09412b5193aff2c36c4d82ffe170628d06e8479c97ae4ed6cfba6aa6fd82604051610c879190611c9c565b60405180910390a1505050565b6002602052806000526040600020600091509050806000015490806001018054610cbd906115fa565b80601f0160208091040260200160405190810160405280929190818152602001828054610ce9906115fa565b8015610d365780601f10610d0b57610100808354040283529160200191610d36565b820191906000526020600020905b815481529060010190602001808311610d1957829003601f168201915b505050505090806002018054610d4b906115fa565b80601f0160208091040260200160405190810160405280929190818152602001828054610d77906115fa565b8015610dc45780601f10610d9957610100808354040283529160200191610dc4565b820191906000526020600020905b815481529060010190602001808311610da757829003601f168201915b5050505050905083565b7f4f6346e940b71393ab3e4b047c39b2e81c33032ae767224788a5e8ab3c2d28bd338383604051610e0193929190611cca565b60405180910390a15050565b600080600090505b600180549050811015610e7f5760018181548110610e3657610e35611d08565b5b90600052602060002001604051610e4d9190611dcf565b6040518091039020838051906020012003610e6c576001915050610e85565b8080610e77906118d8565b915050610e15565b50600090505b919050565b60405180606001604052806000815260200160608152602001606081525090565b6000604051905090565b600080fd5b600080fd5b600080fd5b600080fd5b6000601f19601f8301169050919050565b7f4e487b7100000000000000000000000000000000000000000000000000000000600052604160045260246000fd5b610f1282610ec9565b810181811067ffffffffffffffff82111715610f3157610f30610eda565b5b80604052505050565b6000610f44610eab565b9050610f508282610f09565b919050565b600067ffffffffffffffff821115610f7057610f6f610eda565b5b610f7982610ec9565b9050602081019050919050565b82818337600083830152505050565b6000610fa8610fa384610f55565b610f3a565b905082815260208101848484011115610fc457610fc3610ec4565b5b610fcf848285610f86565b509392505050565b600082601f830112610fec57610feb610ebf565b5b8135610ffc848260208601610f95565b91505092915050565b6000806040838503121561101c5761101b610eb5565b5b600083013567ffffffffffffffff81111561103a57611039610eba565b5b61104685828601610fd7565b925050602083013567ffffffffffffffff81111561106757611066610eba565b5b61107385828601610fd7565b9150509250929050565b6000819050919050565b6110908161107d565b811461109b57600080fd5b50565b6000813590506110ad81611087565b92915050565b600080604083850312156110ca576110c9610eb5565b5b60006110d88582860161109e565b925050602083013567ffffffffffffffff8111156110f9576110f8610eba565b5b61110585828601610fd7565b9150509250929050565b6111188161107d565b82525050565b6000602082019050611133600083018461110f565b92915050565b60006020828403121561114f5761114e610eb5565b5b600061115d8482850161109e565b91505092915050565b600081519050919050565b600082825260208201905092915050565b60005b838110156111a0578082015181840152602081019050611185565b60008484015250505050565b60006111b782611166565b6111c18185611171565b93506111d1818560208601611182565b6111da81610ec9565b840191505092915050565b600060208201905081810360008301526111ff81846111ac565b905092915050565b6000806000606084860312156112205761121f610eb5565b5b600061122e8682870161109e565b935050602084013567ffffffffffffffff81111561124f5761124e610eba565b5b61125b86828701610fd7565b925050604084013567ffffffffffffffff81111561127c5761127b610eba565b5b61128886828701610fd7565b9150509250925092565b600073ffffffffffffffffffffffffffffffffffffffff82169050919050565b60006112bd82611292565b9050919050565b6112cd816112b2565b82525050565b60006020820190506112e860008301846112c4565b92915050565b6112f78161107d565b82525050565b600082825260208201905092915050565b600061131982611166565b61132381856112fd565b9350611333818560208601611182565b61133c81610ec9565b840191505092915050565b600060608301600083015161135f60008601826112ee565b5060208301518482036020860152611377828261130e565b91505060408301518482036040860152611391828261130e565b9150508091505092915050565b600060208201905081810360008301526113b88184611347565b905092915050565b6113c9816112b2565b81146113d457600080fd5b50565b6000813590506113e6816113c0565b92915050565b6000806040838503121561140357611402610eb5565b5b6000611411858286016113d7565b92505060206114228582860161109e565b9150509250929050565b6000606082019050611441600083018661110f565b818103602083015261145381856111ac565b9050818103604083015261146781846111ac565b9050949350505050565b6000806040838503121561148857611487610eb5565b5b6000611496858286016113d7565b925050602083013567ffffffffffffffff8111156114b7576114b6610eba565b5b6114c385828601610fd7565b9150509250929050565b7f4f6e6c7920746865206f776e65722063616e20706572666f726d20746869732060008201527f616374696f6e0000000000000000000000000000000000000000000000000000602082015250565b6000611529602683611171565b9150611534826114cd565b604082019050919050565b600060208201905081810360008301526115588161151c565b9050919050565b7f496e76616c696420737461747573000000000000000000000000000000000000600082015250565b6000611595600e83611171565b91506115a08261155f565b602082019050919050565b600060208201905081810360008301526115c481611588565b9050919050565b7f4e487b7100000000000000000000000000000000000000000000000000000000600052602260045260246000fd5b6000600282049050600182168061161257607f821691505b602082108103611625576116246115cb565b5b50919050565b60008190508160005260206000209050919050565b60006020601f8301049050919050565b600082821b905092915050565b60006008830261168d7fffffffffffffffffffffffffffffffffffffffffffffffffffffffffffffffff82611650565b6116978683611650565b95508019841693508086168417925050509392505050565b6000819050919050565b60006116d46116cf6116ca8461107d565b6116af565b61107d565b9050919050565b6000819050919050565b6116ee836116b9565b6117026116fa826116db565b84845461165d565b825550505050565b600090565b61171761170a565b6117228184846116e5565b505050565b5b818110156117465761173b60008261170f565b600181019050611728565b5050565b601f82111561178b5761175c8161162b565b61176584611640565b81016020851015611774578190505b61178861178085611640565b830182611727565b50505b505050565b600082821c905092915050565b60006117ae60001984600802611790565b1980831691505092915050565b60006117c7838361179d565b9150826002028217905092915050565b6117e082611166565b67ffffffffffffffff8111156117f9576117f8610eda565b5b61180382546115fa565b61180e82828561174a565b600060209050601f831160018114611841576000841561182f578287015190505b61183985826117bb565b8655506118a1565b601f19841661184f8661162b565b60005b8281101561187757848901518255600182019150602085019450602081019050611852565b868310156118945784890151611890601f89168261179d565b8355505b6001600288020188555050505b505050505050565b7f4e487b7100000000000000000000000000000000000000000000000000000000600052601160045260246000fd5b60006118e38261107d565b91507fffffffffffffffffffffffffffffffffffffffffffffffffffffffffffffffff8203611915576119146118a9565b5b600182019050919050565b7f496e76616c696420426f78204944000000000000000000000000000000000000600082015250565b6000611956600e83611171565b915061196182611920565b602082019050919050565b6000602082019050818103600083015261198581611949565b9050919050565b600060408201905081810360008301526119a681856111ac565b90506119b5602083018461110f565b9392505050565b600060608201905081810360008301526119d681866111ac565b905081810360208301526119ea81856111ac565b90506119f9604083018461110f565b949350505050565b7f416964426f7820646f6573206e6f742065786973740000000000000000000000600082015250565b6000611a37601583611171565b9150611a4282611a01565b602082019050919050565b60006020820190508181036000830152611a6681611a2a565b9050919050565b6000604082019050611a82600083018561110f565b8181036020830152611a9481846111ac565b90509392505050565b7f496e76616c696420726563656976657200000000000000000000000000000000600082015250565b6000611ad3601083611171565b9150611ade82611a9d565b602082019050919050565b60006020820190508181036000830152611b0281611ac6565b9050919050565b7f4e6f204554482073656e74000000000000000000000000000000000000000000600082015250565b6000611b3f600b83611171565b9150611b4a82611b09565b602082019050919050565b60006020820190508181036000830152611b6e81611b32565b9050919050565b600081905092915050565b50565b6000611b90600083611b75565b9150611b9b82611b80565b600082019050919050565b6000611bb182611b83565b9150819050919050565b7f5472616e73666572206661696c65640000000000000000000000000000000000600082015250565b6000611bf1600f83611171565b9150611bfc82611bbb565b602082019050919050565b60006020820190508181036000830152611c2081611be4565b9050919050565b6000604082019050611c3c600083018561110f565b611c49602083018461110f565b9392505050565b7f52656365697665642046756e6473000000000000000000000000000000000000600082015250565b6000611c86600e83611171565b9150611c9182611c50565b602082019050919050565b6000604082019050611cb1600083018461110f565b8181036020830152611cc281611c79565b905092915050565b6000606082019050611cdf60008301866112c4565b611cec60208301856112c4565b8181036040830152611cfe81846111ac565b9050949350505050565b7f4e487b7100000000000000000000000000000000000000000000000000000000600052603260045260246000fd5b60008190508160005260206000209050919050565b60008154611d59816115fa565b611d638186611b75565b94506001821660008114611d7e5760018114611d9357611dc6565b60ff1983168652811515820286019350611dc6565b611d9c85611d37565b60005b83811015611dbe57815481890152600182019150602081019050611d9f565b838801955050505b50505092915050565b6000611ddb8284611d4c565b91508190509291505056fea264697066735822122015a6f3ba2d504e9aa5017bb7b2953068f51561b7e47f3fc16aa58d5f3ac4061064736f6c63430008120033",
  "linkReferences": {},
  "deployedLinkReferences": {}
}