{
  "_format": "hh-sol-artifact-1",
  "contractName": "AidBoxTracker",
  "sourceName": "contracts/AidBoxTracker.sol",
  "abi": [
    {
      "inputs": [],
      "stateMutability": "nonpayable",
      "type": "constructor"
    },
    {
      "anonymous": false,
      "inputs": [
        {
          "indexed": false,
          "internalType": "uint256",
          "name": "id",
          "type": "uint256"
        },
        {
          "indexed": false,
          "internalType": "string",
          "name": "newStatus",
          "type": "string"
        }
      ],
      "name": "AidBoxStatusUpdated",
      "type": "event"
    },
    {
      "anonymous": false,
      "inputs": [
        {
          "indexed": false,
          "internalType": "address",
          "name": "fromOrg",
          "type": "address"
        },
        {
          "indexed": false,
          "internalType": "address",
          "name": "toOrg",
          "type": "address"
        },
        {
          "indexed": false,
          "internalType": "string",
          "name": "details",
          "type": "string"
        }
      ],
      "name": "CollaborationRequested",
      "type": "event"
    },
    {
      "inputs": [
        {
          "internalType": "string",
          "name": "description",
          "type": "string"
        },
        {
          "internalType": "string",
          "name": "status",
          "type": "string"
        }
      ],
      "name": "addAidBox",
      "outputs": [],
      "stateMutability": "nonpayable",
      "type": "function"
    },
    {
      "inputs": [
        {
          "internalType": "uint256",
          "name": "",
          "type": "uint256"
        }
      ],
      "name": "aidBoxes",
      "outputs": [
        {
          "internalType": "uint256",
          "name": "id",
          "type": "uint256"
        },
        {
          "internalType": "string",
          "name": "description",
          "type": "string"
        },
        {
          "internalType": "string",
          "name": "status",
          "type": "string"
        }
      ],
      "stateMutability": "view",
      "type": "function"
    },
    {
      "inputs": [
        {
          "internalType": "uint256",
          "name": "id",
          "type": "uint256"
        }
      ],
      "name": "getAidBox",
      "outputs": [
        {
          "components": [
            {
              "internalType": "uint256",
              "name": "id",
              "type": "uint256"
            },
            {
              "internalType": "string",
              "name": "description",
              "type": "string"
            },
            {
              "internalType": "string",
              "name": "status",
              "type": "string"
            }
          ],
          "internalType": "struct AidBoxTracker.AidBox",
          "name": "",
          "type": "tuple"
        }
      ],
      "stateMutability": "view",
      "type": "function"
    },
    {
      "inputs": [],
      "name": "nextId",
      "outputs": [
        {
          "internalType": "uint256",
          "name": "",
          "type": "uint256"
        }
      ],
      "stateMutability": "view",
      "type": "function"
    },
    {
      "inputs": [],
      "name": "owner",
      "outputs": [
        {
          "internalType": "address",
          "name": "",
          "type": "address"
        }
      ],
      "stateMutability": "view",
      "type": "function"
    },
    {
      "inputs": [
        {
          "internalType": "address",
          "name": "toOrg",
          "type": "address"
        },
        {
          "internalType": "string",
          "name": "details",
          "type": "string"
        }
      ],
      "name": "requestCollaboration",
      "outputs": [],
      "stateMutability": "nonpayable",
      "type": "function"
    },
    {
      "inputs": [
        {
          "internalType": "uint256",
          "name": "id",
          "type": "uint256"
        },
        {
          "internalType": "string",
          "name": "status",
          "type": "string"
        }
      ],
      "name": "updateAidBoxStatus",
      "outputs": [],
      "stateMutability": "nonpayable",
      "type": "function"
    },
    {
      "inputs": [
        {
          "internalType": "uint256",
          "name": "",
          "type": "uint256"
        }
      ],
      "name": "validStatuses",
      "outputs": [
        {
          "internalType": "string",
          "name": "",
          "type": "string"
        }
      ],
      "stateMutability": "view",
      "type": "function"
    }
  ],
  "bytecode": "0x608060405260405180608001604052806040518060400160405280600781526020017f50656e64696e670000000000000000000000000000000000000000000000000081525081526020016040518060400160405280600981526020017f44656c697665726564000000000000000000000000000000000000000000000081525081526020016040518060400160405280600a81526020017f496e205472616e7369740000000000000000000000000000000000000000000081525081526020016040518060400160405280600981526020017f43616e63656c6c6564000000000000000000000000000000000000000000000081525081525060019060046200010b92919062000160565b503480156200011957600080fd5b50336000806101000a81548173ffffffffffffffffffffffffffffffffffffffff021916908373ffffffffffffffffffffffffffffffffffffffff160217905550620005ae565b828054828255906000526020600020908101928215620001ad579160200282015b82811115620001ac5782518290816200019b9190620004c7565b509160200191906001019062000181565b5b509050620001bc9190620001c0565b5090565b5b80821115620001e45760008181620001da9190620001e8565b50600101620001c1565b5090565b508054620001f690620002b6565b6000825580601f106200020a57506200022b565b601f0160209004906000526020600020908101906200022a91906200022e565b5b50565b5b80821115620002495760008160009055506001016200022f565b5090565b600081519050919050565b7f4e487b7100000000000000000000000000000000000000000000000000000000600052604160045260246000fd5b7f4e487b7100000000000000000000000000000000000000000000000000000000600052602260045260246000fd5b60006002820490506001821680620002cf57607f821691505b602082108103620002e557620002e462000287565b5b50919050565b60008190508160005260206000209050919050565b60006020601f8301049050919050565b600082821b905092915050565b6000600883026200034f7fffffffffffffffffffffffffffffffffffffffffffffffffffffffffffffffff8262000310565b6200035b868362000310565b95508019841693508086168417925050509392505050565b6000819050919050565b6000819050919050565b6000620003a8620003a26200039c8462000373565b6200037d565b62000373565b9050919050565b6000819050919050565b620003c48362000387565b620003dc620003d382620003af565b8484546200031d565b825550505050565b600090565b620003f3620003e4565b62000400818484620003b9565b505050565b5b8181101562000428576200041c600082620003e9565b60018101905062000406565b5050565b601f82111562000477576200044181620002eb565b6200044c8462000300565b810160208510156200045c578190505b620004746200046b8562000300565b83018262000405565b50505b505050565b600082821c905092915050565b60006200049c600019846008026200047c565b1980831691505092915050565b6000620004b7838362000489565b9150826002028217905092915050565b620004d2826200024d565b67ffffffffffffffff811115620004ee57620004ed62000258565b5b620004fa8254620002b6565b620005078282856200042c565b600060209050601f8311600181146200053f57600084156200052a578287015190505b620005368582620004a9565b865550620005a6565b601f1984166200054f86620002eb565b60005b82811015620005795784890151825560018201915060208501945060208101905062000552565b8683101562000599578489015162000595601f89168262000489565b8355505b6001600288020188555050505b505050505050565b6114b680620005be6000396000f3fe608060405234801561001057600080fd5b50600436106100885760003560e01c8063afb635401161005b578063afb6354014610115578063d5b3b3f514610145578063db7aa53114610161578063e7c546001461019357610088565b8063290b5ec71461008d57806361b8ce8c146100a95780638899800c146100c75780638da5cb5b146100f7575b600080fd5b6100a760048036038101906100a29190610a6d565b6101af565b005b6100b161030c565b6040516100be9190610afe565b60405180910390f35b6100e160048036038101906100dc9190610b45565b610312565b6040516100ee9190610bf1565b60405180910390f35b6100ff6103be565b60405161010c9190610c54565b60405180910390f35b61012f600480360381019061012a9190610b45565b6103e2565b60405161013c9190610d1f565b60405180910390f35b61015f600480360381019061015a9190610d41565b610581565b005b61017b60048036038101906101769190610b45565b6106fc565b60405161018a93929190610d9d565b60405180910390f35b6101ad60048036038101906101a89190610e0e565b610836565b005b60008054906101000a900473ffffffffffffffffffffffffffffffffffffffff1673ffffffffffffffffffffffffffffffffffffffff163373ffffffffffffffffffffffffffffffffffffffff161461023d576040517f08c379a000000000000000000000000000000000000000000000000000000000815260040161023490610edc565b60405180910390fd5b61024681610875565b610285576040517f08c379a000000000000000000000000000000000000000000000000000000000815260040161027c90610f48565b60405180910390fd5b60405180606001604052806003548152602001838152602001828152506002600060035481526020019081526020016000206000820151816000015560208201518160010190816102d69190611174565b5060408201518160020190816102ec9190611174565b509050506003600081548092919061030390611275565b91905055505050565b60035481565b6001818154811061032257600080fd5b90600052602060002001600091509050805461033d90610f97565b80601f016020809104026020016040519081016040528092919081815260200182805461036990610f97565b80156103b65780601f1061038b576101008083540402835291602001916103b6565b820191906000526020600020905b81548152906001019060200180831161039957829003601f168201915b505050505081565b60008054906101000a900473ffffffffffffffffffffffffffffffffffffffff1681565b6103ea6108f2565b600354821061042e576040517f08c379a000000000000000000000000000000000000000000000000000000000815260040161042590611309565b60405180910390fd5b600260008381526020019081526020016000206040518060600160405290816000820154815260200160018201805461046690610f97565b80601f016020809104026020016040519081016040528092919081815260200182805461049290610f97565b80156104df5780601f106104b4576101008083540402835291602001916104df565b820191906000526020600020905b8154815290600101906020018083116104c257829003601f168201915b505050505081526020016002820180546104f890610f97565b80601f016020809104026020016040519081016040528092919081815260200182805461052490610f97565b80156105715780601f1061054657610100808354040283529160200191610571565b820191906000526020600020905b81548152906001019060200180831161055457829003601f168201915b5050505050815250509050919050565b60008054906101000a900473ffffffffffffffffffffffffffffffffffffffff1673ffffffffffffffffffffffffffffffffffffffff163373ffffffffffffffffffffffffffffffffffffffff161461060f576040517f08c379a000000000000000000000000000000000000000000000000000000000815260040161060690610edc565b60405180910390fd5b6003548210610653576040517f08c379a000000000000000000000000000000000000000000000000000000000815260040161064a90611309565b60405180910390fd5b61065c81610875565b61069b576040517f08c379a000000000000000000000000000000000000000000000000000000000815260040161069290610f48565b60405180910390fd5b806002600084815260200190815260200160002060020190816106be9190611174565b507fdab47a09412b5193aff2c36c4d82ffe170628d06e8479c97ae4ed6cfba6aa6fd82826040516106f0929190611329565b60405180910390a15050565b600260205280600052604060002060009150905080600001549080600101805461072590610f97565b80601f016020809104026020016040519081016040528092919081815260200182805461075190610f97565b801561079e5780601f106107735761010080835404028352916020019161079e565b820191906000526020600020905b81548152906001019060200180831161078157829003601f168201915b5050505050908060020180546107b390610f97565b80601f01602080910402602001604051908101604052809291908181526020018280546107df90610f97565b801561082c5780601f106108015761010080835404028352916020019161082c565b820191906000526020600020905b81548152906001019060200180831161080f57829003601f168201915b5050505050905083565b7f4f6346e940b71393ab3e4b047c39b2e81c33032ae767224788a5e8ab3c2d28bd33838360405161086993929190611359565b60405180910390a15050565b600080600090505b6001805490508110156108e7576001818154811061089e5761089d611397565b5b906000526020600020016040516108b59190611469565b60405180910390208380519060200120036108d45760019150506108ed565b80806108df90611275565b91505061087d565b50600090505b919050565b60405180606001604052806000815260200160608152602001606081525090565b6000604051905090565b600080fd5b600080fd5b600080fd5b600080fd5b6000601f19601f8301169050919050565b7f4e487b7100000000000000000000000000000000000000000000000000000000600052604160045260246000fd5b61097a82610931565b810181811067ffffffffffffffff8211171561099957610998610942565b5b80604052505050565b60006109ac610913565b90506109b88282610971565b919050565b600067ffffffffffffffff8211156109d8576109d7610942565b5b6109e182610931565b9050602081019050919050565b82818337600083830152505050565b6000610a10610a0b846109bd565b6109a2565b905082815260208101848484011115610a2c57610a2b61092c565b5b610a378482856109ee565b509392505050565b600082601f830112610a5457610a53610927565b5b8135610a648482602086016109fd565b91505092915050565b60008060408385031215610a8457610a8361091d565b5b600083013567ffffffffffffffff811115610aa257610aa1610922565b5b610aae85828601610a3f565b925050602083013567ffffffffffffffff811115610acf57610ace610922565b5b610adb85828601610a3f565b9150509250929050565b6000819050919050565b610af881610ae5565b82525050565b6000602082019050610b136000830184610aef565b92915050565b610b2281610ae5565b8114610b2d57600080fd5b50565b600081359050610b3f81610b19565b92915050565b600060208284031215610b5b57610b5a61091d565b5b6000610b6984828501610b30565b91505092915050565b600081519050919050565b600082825260208201905092915050565b60005b83811015610bac578082015181840152602081019050610b91565b60008484015250505050565b6000610bc382610b72565b610bcd8185610b7d565b9350610bdd818560208601610b8e565b610be681610931565b840191505092915050565b60006020820190508181036000830152610c0b8184610bb8565b905092915050565b600073ffffffffffffffffffffffffffffffffffffffff82169050919050565b6000610c3e82610c13565b9050919050565b610c4e81610c33565b82525050565b6000602082019050610c696000830184610c45565b92915050565b610c7881610ae5565b82525050565b600082825260208201905092915050565b6000610c9a82610b72565b610ca48185610c7e565b9350610cb4818560208601610b8e565b610cbd81610931565b840191505092915050565b6000606083016000830151610ce06000860182610c6f565b5060208301518482036020860152610cf88282610c8f565b91505060408301518482036040860152610d128282610c8f565b9150508091505092915050565b60006020820190508181036000830152610d398184610cc8565b905092915050565b60008060408385031215610d5857610d5761091d565b5b6000610d6685828601610b30565b925050602083013567ffffffffffffffff811115610d8757610d86610922565b5b610d9385828601610a3f565b9150509250929050565b6000606082019050610db26000830186610aef565b8181036020830152610dc48185610bb8565b90508181036040830152610dd88184610bb8565b9050949350505050565b610deb81610c33565b8114610df657600080fd5b50565b600081359050610e0881610de2565b92915050565b60008060408385031215610e2557610e2461091d565b5b6000610e3385828601610df9565b925050602083013567ffffffffffffffff811115610e5457610e53610922565b5b610e6085828601610a3f565b9150509250929050565b7f4f6e6c7920746865206f776e65722063616e20706572666f726d20746869732060008201527f616374696f6e0000000000000000000000000000000000000000000000000000602082015250565b6000610ec6602683610b7d565b9150610ed182610e6a565b604082019050919050565b60006020820190508181036000830152610ef581610eb9565b9050919050565b7f496e76616c696420737461747573000000000000000000000000000000000000600082015250565b6000610f32600e83610b7d565b9150610f3d82610efc565b602082019050919050565b60006020820190508181036000830152610f6181610f25565b9050919050565b7f4e487b7100000000000000000000000000000000000000000000000000000000600052602260045260246000fd5b60006002820490506001821680610faf57607f821691505b602082108103610fc257610fc1610f68565b5b50919050565b60008190508160005260206000209050919050565b60006020601f8301049050919050565b600082821b905092915050565b60006008830261102a7fffffffffffffffffffffffffffffffffffffffffffffffffffffffffffffffff82610fed565b6110348683610fed565b95508019841693508086168417925050509392505050565b6000819050919050565b600061107161106c61106784610ae5565b61104c565b610ae5565b9050919050565b6000819050919050565b61108b83611056565b61109f61109782611078565b848454610ffa565b825550505050565b600090565b6110b46110a7565b6110bf818484611082565b505050565b5b818110156110e3576110d86000826110ac565b6001810190506110c5565b5050565b601f821115611128576110f981610fc8565b61110284610fdd565b81016020851015611111578190505b61112561111d85610fdd565b8301826110c4565b50505b505050565b600082821c905092915050565b600061114b6000198460080261112d565b1980831691505092915050565b6000611164838361113a565b9150826002028217905092915050565b61117d82610b72565b67ffffffffffffffff81111561119657611195610942565b5b6111a08254610f97565b6111ab8282856110e7565b600060209050601f8311600181146111de57600084156111cc578287015190505b6111d68582611158565b86555061123e565b601f1984166111ec86610fc8565b60005b82811015611214578489015182556001820191506020850194506020810190506111ef565b86831015611231578489015161122d601f89168261113a565b8355505b6001600288020188555050505b505050505050565b7f4e487b7100000000000000000000000000000000000000000000000000000000600052601160045260246000fd5b600061128082610ae5565b91507fffffffffffffffffffffffffffffffffffffffffffffffffffffffffffffffff82036112b2576112b1611246565b5b600182019050919050565b7f416964426f7820646f6573206e6f742065786973740000000000000000000000600082015250565b60006112f3601583610b7d565b91506112fe826112bd565b602082019050919050565b60006020820190508181036000830152611322816112e6565b9050919050565b600060408201905061133e6000830185610aef565b81810360208301526113508184610bb8565b90509392505050565b600060608201905061136e6000830186610c45565b61137b6020830185610c45565b818103604083015261138d8184610bb8565b9050949350505050565b7f4e487b7100000000000000000000000000000000000000000000000000000000600052603260045260246000fd5b600081905092915050565b60008190508160005260206000209050919050565b600081546113f381610f97565b6113fd81866113c6565b94506001821660008114611418576001811461142d57611460565b60ff1983168652811515820286019350611460565b611436856113d1565b60005b8381101561145857815481890152600182019150602081019050611439565b838801955050505b50505092915050565b600061147582846113e6565b91508190509291505056fea26469706673582212203eb2717966257bba4e6e6d1c514a06fa73fa54c255f83f971cc984670794925e64736f6c63430008120033",
  "linkReferences": {},
  "deployedLinkReferences": {}
}